{
  "_format": "hh-sol-artifact-1",
  "contractName": "FilecoinNFTHack",
  "sourceName": "contracts/FilecoinNFTHack.sol",
  "abi": [
    {
      "inputs": [],
      "stateMutability": "nonpayable",
      "type": "constructor"
    },
    {
      "anonymous": false,
      "inputs": [
        {
          "indexed": true,
          "internalType": "address",
          "name": "owner",
          "type": "address"
        },
        {
          "indexed": true,
          "internalType": "address",
          "name": "approved",
          "type": "address"
        },
        {
          "indexed": true,
          "internalType": "uint256",
          "name": "tokenId",
          "type": "uint256"
        }
      ],
      "name": "Approval",
      "type": "event"
    },
    {
      "anonymous": false,
      "inputs": [
        {
          "indexed": true,
          "internalType": "address",
          "name": "owner",
          "type": "address"
        },
        {
          "indexed": true,
          "internalType": "address",
          "name": "operator",
          "type": "address"
        },
        {
          "indexed": false,
          "internalType": "bool",
          "name": "approved",
          "type": "bool"
        }
      ],
      "name": "ApprovalForAll",
      "type": "event"
    },
    {
      "anonymous": false,
      "inputs": [
        {
          "indexed": false,
          "internalType": "address",
          "name": "sender",
          "type": "address"
        },
        {
          "indexed": false,
          "internalType": "uint256",
          "name": "tokenId",
          "type": "uint256"
        },
        {
          "indexed": false,
          "internalType": "string",
          "name": "tokenURI",
          "type": "string"
        }
      ],
      "name": "NewFilecoinNFTMinted",
      "type": "event"
    },
    {
      "anonymous": false,
      "inputs": [
        {
          "indexed": false,
          "internalType": "uint256",
          "name": "remainingMintableNFTs",
          "type": "uint256"
        }
      ],
      "name": "RemainingMintableNFTChange",
      "type": "event"
    },
    {
      "anonymous": false,
      "inputs": [
        {
          "indexed": true,
          "internalType": "address",
          "name": "from",
          "type": "address"
        },
        {
          "indexed": true,
          "internalType": "address",
          "name": "to",
          "type": "address"
        },
        {
          "indexed": true,
          "internalType": "uint256",
          "name": "tokenId",
          "type": "uint256"
        }
      ],
      "name": "Transfer",
      "type": "event"
    },
    {
      "inputs": [
        {
          "internalType": "address",
          "name": "to",
          "type": "address"
        },
        {
          "internalType": "uint256",
          "name": "tokenId",
          "type": "uint256"
        }
      ],
      "name": "approve",
      "outputs": [],
      "stateMutability": "nonpayable",
      "type": "function"
    },
    {
      "inputs": [
        {
          "internalType": "address",
          "name": "owner",
          "type": "address"
        }
      ],
      "name": "balanceOf",
      "outputs": [
        {
          "internalType": "uint256",
          "name": "",
          "type": "uint256"
        }
      ],
      "stateMutability": "view",
      "type": "function"
    },
    {
      "inputs": [
        {
          "internalType": "uint256",
          "name": "tokenId",
          "type": "uint256"
        }
      ],
      "name": "getApproved",
      "outputs": [
        {
          "internalType": "address",
          "name": "",
          "type": "address"
        }
      ],
      "stateMutability": "view",
      "type": "function"
    },
    {
      "inputs": [],
      "name": "getNFTCollection",
      "outputs": [
        {
          "components": [
            {
              "internalType": "address",
              "name": "owner",
              "type": "address"
            },
            {
              "internalType": "string",
              "name": "tokenURI",
              "type": "string"
            },
            {
              "internalType": "uint256",
              "name": "tokenId",
              "type": "uint256"
            }
          ],
          "internalType": "struct FilecoinNFTHack.myNFT[]",
          "name": "",
          "type": "tuple[]"
        }
      ],
      "stateMutability": "view",
      "type": "function"
    },
    {
      "inputs": [],
      "name": "getRemainingMintableNFTs",
      "outputs": [
        {
          "internalType": "uint256",
          "name": "",
          "type": "uint256"
        }
      ],
      "stateMutability": "view",
      "type": "function"
    },
    {
      "inputs": [
        {
          "internalType": "address",
          "name": "owner",
          "type": "address"
        },
        {
          "internalType": "address",
          "name": "operator",
          "type": "address"
        }
      ],
      "name": "isApprovedForAll",
      "outputs": [
        {
          "internalType": "bool",
          "name": "",
          "type": "bool"
        }
      ],
      "stateMutability": "view",
      "type": "function"
    },
    {
      "inputs": [],
      "name": "maxNFTs",
      "outputs": [
        {
          "internalType": "uint256",
          "name": "",
          "type": "uint256"
        }
      ],
      "stateMutability": "view",
      "type": "function"
    },
    {
      "inputs": [
        {
          "internalType": "string",
          "name": "ipfsURI",
          "type": "string"
        }
      ],
      "name": "mintMyNFT",
      "outputs": [],
      "stateMutability": "nonpayable",
      "type": "function"
    },
    {
      "inputs": [],
      "name": "name",
      "outputs": [
        {
          "internalType": "string",
          "name": "",
          "type": "string"
        }
      ],
      "stateMutability": "view",
      "type": "function"
    },
    {
      "inputs": [
        {
          "internalType": "uint256",
          "name": "",
          "type": "uint256"
        }
      ],
      "name": "nftCollection",
      "outputs": [
        {
          "internalType": "address",
          "name": "owner",
          "type": "address"
        },
        {
          "internalType": "string",
          "name": "tokenURI",
          "type": "string"
        },
        {
          "internalType": "uint256",
          "name": "tokenId",
          "type": "uint256"
        }
      ],
      "stateMutability": "view",
      "type": "function"
    },
    {
      "inputs": [
        {
          "internalType": "uint256",
          "name": "tokenId",
          "type": "uint256"
        }
      ],
      "name": "ownerOf",
      "outputs": [
        {
          "internalType": "address",
          "name": "",
          "type": "address"
        }
      ],
      "stateMutability": "view",
      "type": "function"
    },
    {
      "inputs": [],
      "name": "remainingMintableNFTs",
      "outputs": [
        {
          "internalType": "uint256",
          "name": "",
          "type": "uint256"
        }
      ],
      "stateMutability": "view",
      "type": "function"
    },
    {
      "inputs": [
        {
          "internalType": "address",
          "name": "from",
          "type": "address"
        },
        {
          "internalType": "address",
          "name": "to",
          "type": "address"
        },
        {
          "internalType": "uint256",
          "name": "tokenId",
          "type": "uint256"
        }
      ],
      "name": "safeTransferFrom",
      "outputs": [],
      "stateMutability": "nonpayable",
      "type": "function"
    },
    {
      "inputs": [
        {
          "internalType": "address",
          "name": "from",
          "type": "address"
        },
        {
          "internalType": "address",
          "name": "to",
          "type": "address"
        },
        {
          "internalType": "uint256",
          "name": "tokenId",
          "type": "uint256"
        },
        {
          "internalType": "bytes",
          "name": "_data",
          "type": "bytes"
        }
      ],
      "name": "safeTransferFrom",
      "outputs": [],
      "stateMutability": "nonpayable",
      "type": "function"
    },
    {
      "inputs": [
        {
          "internalType": "address",
          "name": "operator",
          "type": "address"
        },
        {
          "internalType": "bool",
          "name": "approved",
          "type": "bool"
        }
      ],
      "name": "setApprovalForAll",
      "outputs": [],
      "stateMutability": "nonpayable",
      "type": "function"
    },
    {
      "inputs": [
        {
          "internalType": "bytes4",
          "name": "interfaceId",
          "type": "bytes4"
        }
      ],
      "name": "supportsInterface",
      "outputs": [
        {
          "internalType": "bool",
          "name": "",
          "type": "bool"
        }
      ],
      "stateMutability": "view",
      "type": "function"
    },
    {
      "inputs": [],
      "name": "symbol",
      "outputs": [
        {
          "internalType": "string",
          "name": "",
          "type": "string"
        }
      ],
      "stateMutability": "view",
      "type": "function"
    },
    {
      "inputs": [
        {
          "internalType": "uint256",
          "name": "tokenId",
          "type": "uint256"
        }
      ],
      "name": "tokenURI",
      "outputs": [
        {
          "internalType": "string",
          "name": "",
          "type": "string"
        }
      ],
      "stateMutability": "view",
      "type": "function"
    },
    {
      "inputs": [
        {
          "internalType": "address",
          "name": "from",
          "type": "address"
        },
        {
          "internalType": "address",
          "name": "to",
          "type": "address"
        },
        {
          "internalType": "uint256",
          "name": "tokenId",
          "type": "uint256"
        }
      ],
      "name": "transferFrom",
      "outputs": [],
      "stateMutability": "nonpayable",
      "type": "function"
    }
  ],
  "bytecode": "0x60806040523480156200001157600080fd5b506040518060400160405280601581526020017f457468476c6f62616c204e46544861636b3230323200000000000000000000008152506040518060400160405280601581526020017f46696c65636f696e2053746172746572204e4654730000000000000000000000815250816000908051906020019062000096929190620001d7565b508060019080519060200190620000af929190620001d7565b505050620000fd6040518060400160405280601781526020017f54686973206973206d79204e465420636f6e74726163740000000000000000008152506200010b60201b62000fb21760201c565b6064600881905550620003b4565b620001ab81604051602401620001229190620002c8565b6040516020818303038152906040527f41304fac000000000000000000000000000000000000000000000000000000007bffffffffffffffffffffffffffffffffffffffffffffffffffffffff19166020820180517bffffffffffffffffffffffffffffffffffffffffffffffffffffffff8381831617835250505050620001ae60201b60201c565b50565b60008151905060006a636f6e736f6c652e6c6f679050602083016000808483855afa5050505050565b828054620001e5906200033e565b90600052602060002090601f01602090048101928262000209576000855562000255565b82601f106200022457805160ff191683800117855562000255565b8280016001018555821562000255579182015b828111156200025457825182559160200191906001019062000237565b5b50905062000264919062000268565b5090565b5b808211156200028357600081600090555060010162000269565b5090565b60006200029482620002ec565b620002a08185620002f7565b9350620002b281856020860162000308565b620002bd81620003a3565b840191505092915050565b60006020820190508181036000830152620002e4818462000287565b905092915050565b600081519050919050565b600082825260208201905092915050565b60005b83811015620003285780820151818401526020810190506200030b565b8381111562000338576000848401525b50505050565b600060028204905060018216806200035757607f821691505b602082108114156200036e576200036d62000374565b5b50919050565b7f4e487b7100000000000000000000000000000000000000000000000000000000600052602260045260246000fd5b6000601f19601f8301169050919050565b61333680620003c46000396000f3fe608060405234801561001057600080fd5b50600436106101215760003560e01c806370a08231116100ad578063b88d4fde11610071578063b88d4fde1461031c578063c298de7e14610338578063c87b56dd14610356578063e985e9c514610386578063fedea023146103b657610121565b806370a08231146102625780637c711b2714610292578063911fd8eb146102c457806395d89b41146102e2578063a22cb4651461030057610121565b806323b872dd116100f457806323b872dd146101c057806338d64576146101dc57806342842e0e146101f85780634e9e1ec6146102145780636352211e1461023257610121565b806301ffc9a71461012657806306fdde0314610156578063081812fc14610174578063095ea7b3146101a4575b600080fd5b610140600480360381019061013b919061218a565b6103d4565b60405161014d919061279f565b60405180910390f35b61015e6104b6565b60405161016b91906127ba565b60405180910390f35b61018e6004803603810190610189919061221d565b610548565b60405161019b919061269a565b60405180910390f35b6101be60048036038101906101b9919061214e565b6105cd565b005b6101da60048036038101906101d59190612048565b6106e5565b005b6101f660048036038101906101f191906121dc565b610745565b005b610212600480360381019061020d9190612048565b6108ef565b005b61021c61090f565b60405161022991906129dc565b60405180910390f35b61024c6004803603810190610247919061221d565b610915565b604051610259919061269a565b60405180910390f35b61027c60048036038101906102779190611fe3565b6109c7565b60405161028991906129dc565b60405180910390f35b6102ac60048036038101906102a7919061221d565b610a7f565b6040516102bb93929190612701565b60405180910390f35b6102cc610b61565b6040516102d991906129dc565b60405180910390f35b6102ea610b67565b6040516102f791906127ba565b60405180910390f35b61031a60048036038101906103159190612112565b610bf9565b005b61033660048036038101906103319190612097565b610c0f565b005b610340610c71565b60405161034d91906129dc565b60405180910390f35b610370600480360381019061036b919061221d565b610c7b565b60405161037d91906127ba565b60405180910390f35b6103a0600480360381019061039b919061200c565b610dcd565b6040516103ad919061279f565b60405180910390f35b6103be610e61565b6040516103cb919061277d565b60405180910390f35b60007f80ac58cd000000000000000000000000000000000000000000000000000000007bffffffffffffffffffffffffffffffffffffffffffffffffffffffff1916827bffffffffffffffffffffffffffffffffffffffffffffffffffffffff1916148061049f57507f5b5e139f000000000000000000000000000000000000000000000000000000007bffffffffffffffffffffffffffffffffffffffffffffffffffffffff1916827bffffffffffffffffffffffffffffffffffffffffffffffffffffffff1916145b806104af57506104ae8261104b565b5b9050919050565b6060600080546104c590612c7c565b80601f01602080910402602001604051908101604052809291908181526020018280546104f190612c7c565b801561053e5780601f106105135761010080835404028352916020019161053e565b820191906000526020600020905b81548152906001019060200180831161052157829003601f168201915b5050505050905090565b6000610553826110b5565b610592576040517f08c379a00000000000000000000000000000000000000000000000000000000081526004016105899061293c565b60405180910390fd5b6004600083815260200190815260200160002060009054906101000a900473ffffffffffffffffffffffffffffffffffffffff169050919050565b60006105d882610915565b90508073ffffffffffffffffffffffffffffffffffffffff168373ffffffffffffffffffffffffffffffffffffffff161415610649576040517f08c379a00000000000000000000000000000000000000000000000000000000081526004016106409061299c565b60405180910390fd5b8073ffffffffffffffffffffffffffffffffffffffff16610668611121565b73ffffffffffffffffffffffffffffffffffffffff161480610697575061069681610691611121565b610dcd565b5b6106d6576040517f08c379a00000000000000000000000000000000000000000000000000000000081526004016106cd9061287c565b60405180910390fd5b6106e08383611129565b505050565b6106f66106f0611121565b826111e2565b610735576040517f08c379a000000000000000000000000000000000000000000000000000000000815260040161072c906129bc565b60405180910390fd5b6107408383836112c0565b505050565b600854610752600761151c565b1061075c57600080fd5b6000610768600761151c565b9050600060405180606001604052803373ffffffffffffffffffffffffffffffffffffffff1681526020018481526020018381525090506107a9338361152a565b6107b38284611548565b6107bd60076115bc565b6107c7600761151c565b6008546107d49190612b92565b600981905550600a81908060018154018082558091505060019003906000526020600020906003020160009091909190915060008201518160000160006101000a81548173ffffffffffffffffffffffffffffffffffffffff021916908373ffffffffffffffffffffffffffffffffffffffff1602179055506020820151816001019080519060200190610869929190611e07565b506040820151816002015550507f89f273f7546784d1e53e910bceea74983bf6444b826671e5ecebf276132d2b393383856040516108a99392919061273f565b60405180910390a17ff74c908d36eaad399b930a28fc128529b7ede42811b73b0e71a03f86ea475cb96009546040516108e291906129dc565b60405180910390a1505050565b61090a83838360405180602001604052806000815250610c0f565b505050565b60085481565b6000806002600084815260200190815260200160002060009054906101000a900473ffffffffffffffffffffffffffffffffffffffff169050600073ffffffffffffffffffffffffffffffffffffffff168173ffffffffffffffffffffffffffffffffffffffff1614156109be576040517f08c379a00000000000000000000000000000000000000000000000000000000081526004016109b5906128bc565b60405180910390fd5b80915050919050565b60008073ffffffffffffffffffffffffffffffffffffffff168273ffffffffffffffffffffffffffffffffffffffff161415610a38576040517f08c379a0000000000000000000000000000000000000000000000000000000008152600401610a2f9061289c565b60405180910390fd5b600360008373ffffffffffffffffffffffffffffffffffffffff1673ffffffffffffffffffffffffffffffffffffffff168152602001908152602001600020549050919050565b600a8181548110610a8f57600080fd5b90600052602060002090600302016000915090508060000160009054906101000a900473ffffffffffffffffffffffffffffffffffffffff1690806001018054610ad890612c7c565b80601f0160208091040260200160405190810160405280929190818152602001828054610b0490612c7c565b8015610b515780601f10610b2657610100808354040283529160200191610b51565b820191906000526020600020905b815481529060010190602001808311610b3457829003601f168201915b5050505050908060020154905083565b60095481565b606060018054610b7690612c7c565b80601f0160208091040260200160405190810160405280929190818152602001828054610ba290612c7c565b8015610bef5780601f10610bc457610100808354040283529160200191610bef565b820191906000526020600020905b815481529060010190602001808311610bd257829003601f168201915b5050505050905090565b610c0b610c04611121565b83836115d2565b5050565b610c20610c1a611121565b836111e2565b610c5f576040517f08c379a0000000000000000000000000000000000000000000000000000000008152600401610c56906129bc565b60405180910390fd5b610c6b8484848461173f565b50505050565b6000600954905090565b6060610c86826110b5565b610cc5576040517f08c379a0000000000000000000000000000000000000000000000000000000008152600401610cbc9061291c565b60405180910390fd5b6000600660008481526020019081526020016000208054610ce590612c7c565b80601f0160208091040260200160405190810160405280929190818152602001828054610d1190612c7c565b8015610d5e5780601f10610d3357610100808354040283529160200191610d5e565b820191906000526020600020905b815481529060010190602001808311610d4157829003601f168201915b505050505090506000610d6f61179b565b9050600081511415610d85578192505050610dc8565b600082511115610dba578082604051602001610da2929190612676565b60405160208183030381529060405292505050610dc8565b610dc3846117b2565b925050505b919050565b6000600560008473ffffffffffffffffffffffffffffffffffffffff1673ffffffffffffffffffffffffffffffffffffffff16815260200190815260200160002060008373ffffffffffffffffffffffffffffffffffffffff1673ffffffffffffffffffffffffffffffffffffffff16815260200190815260200160002060009054906101000a900460ff16905092915050565b6060600a805480602002602001604051908101604052809291908181526020016000905b82821015610fa957838290600052602060002090600302016040518060600160405290816000820160009054906101000a900473ffffffffffffffffffffffffffffffffffffffff1673ffffffffffffffffffffffffffffffffffffffff1673ffffffffffffffffffffffffffffffffffffffff168152602001600182018054610f0e90612c7c565b80601f0160208091040260200160405190810160405280929190818152602001828054610f3a90612c7c565b8015610f875780601f10610f5c57610100808354040283529160200191610f87565b820191906000526020600020905b815481529060010190602001808311610f6a57829003601f168201915b5050505050815260200160028201548152505081526020019060010190610e85565b50505050905090565b61104881604051602401610fc691906127ba565b6040516020818303038152906040527f41304fac000000000000000000000000000000000000000000000000000000007bffffffffffffffffffffffffffffffffffffffffffffffffffffffff19166020820180517bffffffffffffffffffffffffffffffffffffffffffffffffffffffff8381831617835250505050611859565b50565b60007f01ffc9a7000000000000000000000000000000000000000000000000000000007bffffffffffffffffffffffffffffffffffffffffffffffffffffffff1916827bffffffffffffffffffffffffffffffffffffffffffffffffffffffff1916149050919050565b60008073ffffffffffffffffffffffffffffffffffffffff166002600084815260200190815260200160002060009054906101000a900473ffffffffffffffffffffffffffffffffffffffff1673ffffffffffffffffffffffffffffffffffffffff1614159050919050565b600033905090565b816004600083815260200190815260200160002060006101000a81548173ffffffffffffffffffffffffffffffffffffffff021916908373ffffffffffffffffffffffffffffffffffffffff160217905550808273ffffffffffffffffffffffffffffffffffffffff1661119c83610915565b73ffffffffffffffffffffffffffffffffffffffff167f8c5be1e5ebec7d5bd14f71427d1e84f3dd0314c0f7b2291e5b200ac8c7c3b92560405160405180910390a45050565b60006111ed826110b5565b61122c576040517f08c379a00000000000000000000000000000000000000000000000000000000081526004016112239061285c565b60405180910390fd5b600061123783610915565b90508073ffffffffffffffffffffffffffffffffffffffff168473ffffffffffffffffffffffffffffffffffffffff1614806112a657508373ffffffffffffffffffffffffffffffffffffffff1661128e84610548565b73ffffffffffffffffffffffffffffffffffffffff16145b806112b757506112b68185610dcd565b5b91505092915050565b8273ffffffffffffffffffffffffffffffffffffffff166112e082610915565b73ffffffffffffffffffffffffffffffffffffffff1614611336576040517f08c379a000000000000000000000000000000000000000000000000000000000815260040161132d9061295c565b60405180910390fd5b600073ffffffffffffffffffffffffffffffffffffffff168273ffffffffffffffffffffffffffffffffffffffff1614156113a6576040517f08c379a000000000000000000000000000000000000000000000000000000000815260040161139d9061281c565b60405180910390fd5b6113b1838383611882565b6113bc600082611129565b6001600360008573ffffffffffffffffffffffffffffffffffffffff1673ffffffffffffffffffffffffffffffffffffffff168152602001908152602001600020600082825461140c9190612b92565b925050819055506001600360008473ffffffffffffffffffffffffffffffffffffffff1673ffffffffffffffffffffffffffffffffffffffff16815260200190815260200160002060008282546114639190612b0b565b92505081905550816002600083815260200190815260200160002060006101000a81548173ffffffffffffffffffffffffffffffffffffffff021916908373ffffffffffffffffffffffffffffffffffffffff160217905550808273ffffffffffffffffffffffffffffffffffffffff168473ffffffffffffffffffffffffffffffffffffffff167fddf252ad1be2c89b69c2b068fc378daa952ba7f163c4a11628f55a4df523b3ef60405160405180910390a4505050565b600081600001549050919050565b611544828260405180602001604052806000815250611887565b5050565b611551826110b5565b611590576040517f08c379a0000000000000000000000000000000000000000000000000000000008152600401611587906128dc565b60405180910390fd5b806006600084815260200190815260200160002090805190602001906115b7929190611e07565b505050565b6001816000016000828254019250508190555050565b8173ffffffffffffffffffffffffffffffffffffffff168373ffffffffffffffffffffffffffffffffffffffff161415611641576040517f08c379a00000000000000000000000000000000000000000000000000000000081526004016116389061283c565b60405180910390fd5b80600560008573ffffffffffffffffffffffffffffffffffffffff1673ffffffffffffffffffffffffffffffffffffffff16815260200190815260200160002060008473ffffffffffffffffffffffffffffffffffffffff1673ffffffffffffffffffffffffffffffffffffffff16815260200190815260200160002060006101000a81548160ff0219169083151502179055508173ffffffffffffffffffffffffffffffffffffffff168373ffffffffffffffffffffffffffffffffffffffff167f17307eab39ab6107e8899845ad3d59bd9653f200f220920489ca2b5937696c3183604051611732919061279f565b60405180910390a3505050565b61174a8484846112c0565b611756848484846118e2565b611795576040517f08c379a000000000000000000000000000000000000000000000000000000000815260040161178c906127dc565b60405180910390fd5b50505050565b606060405180602001604052806000815250905090565b60606117bd826110b5565b6117fc576040517f08c379a00000000000000000000000000000000000000000000000000000000081526004016117f39061297c565b60405180910390fd5b600061180661179b565b905060008151116118265760405180602001604052806000815250611851565b8061183084611a79565b604051602001611841929190612676565b6040516020818303038152906040525b915050919050565b60008151905060006a636f6e736f6c652e6c6f679050602083016000808483855afa5050505050565b505050565b6118918383611c26565b61189e60008484846118e2565b6118dd576040517f08c379a00000000000000000000000000000000000000000000000000000000081526004016118d4906127dc565b60405180910390fd5b505050565b60006119038473ffffffffffffffffffffffffffffffffffffffff16611df4565b15611a6c578373ffffffffffffffffffffffffffffffffffffffff1663150b7a0261192c611121565b8786866040518563ffffffff1660e01b815260040161194e94939291906126b5565b602060405180830381600087803b15801561196857600080fd5b505af192505050801561199957506040513d601f19601f8201168201806040525081019061199691906121b3565b60015b611a1c573d80600081146119c9576040519150601f19603f3d011682016040523d82523d6000602084013e6119ce565b606091505b50600081511415611a14576040517f08c379a0000000000000000000000000000000000000000000000000000000008152600401611a0b906127dc565b60405180910390fd5b805181602001fd5b63150b7a0260e01b7bffffffffffffffffffffffffffffffffffffffffffffffffffffffff1916817bffffffffffffffffffffffffffffffffffffffffffffffffffffffff191614915050611a71565b600190505b949350505050565b60606000821415611ac1576040518060400160405280600181526020017f30000000000000000000000000000000000000000000000000000000000000008152509050611c21565b600082905060005b60008214611af3578080611adc90612cdf565b915050600a82611aec9190612b61565b9150611ac9565b60008167ffffffffffffffff811115611b35577f4e487b7100000000000000000000000000000000000000000000000000000000600052604160045260246000fd5b6040519080825280601f01601f191660200182016040528015611b675781602001600182028036833780820191505090505b5090505b60008514611c1a57600182611b809190612b92565b9150600a85611b8f9190612d28565b6030611b9b9190612b0b565b60f81b818381518110611bd7577f4e487b7100000000000000000000000000000000000000000000000000000000600052603260045260246000fd5b60200101907effffffffffffffffffffffffffffffffffffffffffffffffffffffffffffff1916908160001a905350600a85611c139190612b61565b9450611b6b565b8093505050505b919050565b600073ffffffffffffffffffffffffffffffffffffffff168273ffffffffffffffffffffffffffffffffffffffff161415611c96576040517f08c379a0000000000000000000000000000000000000000000000000000000008152600401611c8d906128fc565b60405180910390fd5b611c9f816110b5565b15611cdf576040517f08c379a0000000000000000000000000000000000000000000000000000000008152600401611cd6906127fc565b60405180910390fd5b611ceb60008383611882565b6001600360008473ffffffffffffffffffffffffffffffffffffffff1673ffffffffffffffffffffffffffffffffffffffff1681526020019081526020016000206000828254611d3b9190612b0b565b92505081905550816002600083815260200190815260200160002060006101000a81548173ffffffffffffffffffffffffffffffffffffffff021916908373ffffffffffffffffffffffffffffffffffffffff160217905550808273ffffffffffffffffffffffffffffffffffffffff16600073ffffffffffffffffffffffffffffffffffffffff167fddf252ad1be2c89b69c2b068fc378daa952ba7f163c4a11628f55a4df523b3ef60405160405180910390a45050565b600080823b905060008111915050919050565b828054611e1390612c7c565b90600052602060002090601f016020900481019282611e355760008555611e7c565b82601f10611e4e57805160ff1916838001178555611e7c565b82800160010185558215611e7c579182015b82811115611e7b578251825591602001919060010190611e60565b5b509050611e899190611e8d565b5090565b5b80821115611ea6576000816000905550600101611e8e565b5090565b6000611ebd611eb884612a1c565b6129f7565b905082815260208101848484011115611ed557600080fd5b611ee0848285612c3a565b509392505050565b6000611efb611ef684612a4d565b6129f7565b905082815260208101848484011115611f1357600080fd5b611f1e848285612c3a565b509392505050565b600081359050611f35816132a4565b92915050565b600081359050611f4a816132bb565b92915050565b600081359050611f5f816132d2565b92915050565b600081519050611f74816132d2565b92915050565b600082601f830112611f8b57600080fd5b8135611f9b848260208601611eaa565b91505092915050565b600082601f830112611fb557600080fd5b8135611fc5848260208601611ee8565b91505092915050565b600081359050611fdd816132e9565b92915050565b600060208284031215611ff557600080fd5b600061200384828501611f26565b91505092915050565b6000806040838503121561201f57600080fd5b600061202d85828601611f26565b925050602061203e85828601611f26565b9150509250929050565b60008060006060848603121561205d57600080fd5b600061206b86828701611f26565b935050602061207c86828701611f26565b925050604061208d86828701611fce565b9150509250925092565b600080600080608085870312156120ad57600080fd5b60006120bb87828801611f26565b94505060206120cc87828801611f26565b93505060406120dd87828801611fce565b925050606085013567ffffffffffffffff8111156120fa57600080fd5b61210687828801611f7a565b91505092959194509250565b6000806040838503121561212557600080fd5b600061213385828601611f26565b925050602061214485828601611f3b565b9150509250929050565b6000806040838503121561216157600080fd5b600061216f85828601611f26565b925050602061218085828601611fce565b9150509250929050565b60006020828403121561219c57600080fd5b60006121aa84828501611f50565b91505092915050565b6000602082840312156121c557600080fd5b60006121d384828501611f65565b91505092915050565b6000602082840312156121ee57600080fd5b600082013567ffffffffffffffff81111561220857600080fd5b61221484828501611fa4565b91505092915050565b60006020828403121561222f57600080fd5b600061223d84828501611fce565b91505092915050565b60006122528383612608565b905092915050565b61226381612bc6565b82525050565b61227281612bc6565b82525050565b600061228382612a8e565b61228d8185612abc565b93508360208202850161229f85612a7e565b8060005b858110156122db57848403895281516122bc8582612246565b94506122c783612aaf565b925060208a019950506001810190506122a3565b50829750879550505050505092915050565b6122f681612bd8565b82525050565b600061230782612a99565b6123118185612acd565b9350612321818560208601612c49565b61232a81612e15565b840191505092915050565b600061234082612aa4565b61234a8185612ade565b935061235a818560208601612c49565b61236381612e15565b840191505092915050565b600061237982612aa4565b6123838185612aef565b9350612393818560208601612c49565b61239c81612e15565b840191505092915050565b60006123b282612aa4565b6123bc8185612b00565b93506123cc818560208601612c49565b80840191505092915050565b60006123e5603283612aef565b91506123f082612e26565b604082019050919050565b6000612408601c83612aef565b915061241382612e75565b602082019050919050565b600061242b602483612aef565b915061243682612e9e565b604082019050919050565b600061244e601983612aef565b915061245982612eed565b602082019050919050565b6000612471602c83612aef565b915061247c82612f16565b604082019050919050565b6000612494603883612aef565b915061249f82612f65565b604082019050919050565b60006124b7602a83612aef565b91506124c282612fb4565b604082019050919050565b60006124da602983612aef565b91506124e582613003565b604082019050919050565b60006124fd602e83612aef565b915061250882613052565b604082019050919050565b6000612520602083612aef565b915061252b826130a1565b602082019050919050565b6000612543603183612aef565b915061254e826130ca565b604082019050919050565b6000612566602c83612aef565b915061257182613119565b604082019050919050565b6000612589602983612aef565b915061259482613168565b604082019050919050565b60006125ac602f83612aef565b91506125b7826131b7565b604082019050919050565b60006125cf602183612aef565b91506125da82613206565b604082019050919050565b60006125f2603183612aef565b91506125fd82613255565b604082019050919050565b6000606083016000830151612620600086018261225a565b50602083015184820360208601526126388282612335565b915050604083015161264d6040860182612658565b508091505092915050565b61266181612c30565b82525050565b61267081612c30565b82525050565b600061268282856123a7565b915061268e82846123a7565b91508190509392505050565b60006020820190506126af6000830184612269565b92915050565b60006080820190506126ca6000830187612269565b6126d76020830186612269565b6126e46040830185612667565b81810360608301526126f681846122fc565b905095945050505050565b60006060820190506127166000830186612269565b8181036020830152612728818561236e565b90506127376040830184612667565b949350505050565b60006060820190506127546000830186612269565b6127616020830185612667565b8181036040830152612773818461236e565b9050949350505050565b600060208201905081810360008301526127978184612278565b905092915050565b60006020820190506127b460008301846122ed565b92915050565b600060208201905081810360008301526127d4818461236e565b905092915050565b600060208201905081810360008301526127f5816123d8565b9050919050565b60006020820190508181036000830152612815816123fb565b9050919050565b600060208201905081810360008301526128358161241e565b9050919050565b6000602082019050818103600083015261285581612441565b9050919050565b6000602082019050818103600083015261287581612464565b9050919050565b6000602082019050818103600083015261289581612487565b9050919050565b600060208201905081810360008301526128b5816124aa565b9050919050565b600060208201905081810360008301526128d5816124cd565b9050919050565b600060208201905081810360008301526128f5816124f0565b9050919050565b6000602082019050818103600083015261291581612513565b9050919050565b6000602082019050818103600083015261293581612536565b9050919050565b6000602082019050818103600083015261295581612559565b9050919050565b600060208201905081810360008301526129758161257c565b9050919050565b600060208201905081810360008301526129958161259f565b9050919050565b600060208201905081810360008301526129b5816125c2565b9050919050565b600060208201905081810360008301526129d5816125e5565b9050919050565b60006020820190506129f16000830184612667565b92915050565b6000612a01612a12565b9050612a0d8282612cae565b919050565b6000604051905090565b600067ffffffffffffffff821115612a3757612a36612de6565b5b612a4082612e15565b9050602081019050919050565b600067ffffffffffffffff821115612a6857612a67612de6565b5b612a7182612e15565b9050602081019050919050565b6000819050602082019050919050565b600081519050919050565b600081519050919050565b600081519050919050565b6000602082019050919050565b600082825260208201905092915050565b600082825260208201905092915050565b600082825260208201905092915050565b600082825260208201905092915050565b600081905092915050565b6000612b1682612c30565b9150612b2183612c30565b9250827fffffffffffffffffffffffffffffffffffffffffffffffffffffffffffffffff03821115612b5657612b55612d59565b5b828201905092915050565b6000612b6c82612c30565b9150612b7783612c30565b925082612b8757612b86612d88565b5b828204905092915050565b6000612b9d82612c30565b9150612ba883612c30565b925082821015612bbb57612bba612d59565b5b828203905092915050565b6000612bd182612c10565b9050919050565b60008115159050919050565b60007fffffffff0000000000000000000000000000000000000000000000000000000082169050919050565b600073ffffffffffffffffffffffffffffffffffffffff82169050919050565b6000819050919050565b82818337600083830152505050565b60005b83811015612c67578082015181840152602081019050612c4c565b83811115612c76576000848401525b50505050565b60006002820490506001821680612c9457607f821691505b60208210811415612ca857612ca7612db7565b5b50919050565b612cb782612e15565b810181811067ffffffffffffffff82111715612cd657612cd5612de6565b5b80604052505050565b6000612cea82612c30565b91507fffffffffffffffffffffffffffffffffffffffffffffffffffffffffffffffff821415612d1d57612d1c612d59565b5b600182019050919050565b6000612d3382612c30565b9150612d3e83612c30565b925082612d4e57612d4d612d88565b5b828206905092915050565b7f4e487b7100000000000000000000000000000000000000000000000000000000600052601160045260246000fd5b7f4e487b7100000000000000000000000000000000000000000000000000000000600052601260045260246000fd5b7f4e487b7100000000000000000000000000000000000000000000000000000000600052602260045260246000fd5b7f4e487b7100000000000000000000000000000000000000000000000000000000600052604160045260246000fd5b6000601f19601f8301169050919050565b7f4552433732313a207472616e7366657220746f206e6f6e20455243373231526560008201527f63656976657220696d706c656d656e7465720000000000000000000000000000602082015250565b7f4552433732313a20746f6b656e20616c7265616479206d696e74656400000000600082015250565b7f4552433732313a207472616e7366657220746f20746865207a65726f2061646460008201527f7265737300000000000000000000000000000000000000000000000000000000602082015250565b7f4552433732313a20617070726f766520746f2063616c6c657200000000000000600082015250565b7f4552433732313a206f70657261746f7220717565727920666f72206e6f6e657860008201527f697374656e7420746f6b656e0000000000000000000000000000000000000000602082015250565b7f4552433732313a20617070726f76652063616c6c6572206973206e6f74206f7760008201527f6e6572206e6f7220617070726f76656420666f7220616c6c0000000000000000602082015250565b7f4552433732313a2062616c616e636520717565727920666f7220746865207a6560008201527f726f206164647265737300000000000000000000000000000000000000000000602082015250565b7f4552433732313a206f776e657220717565727920666f72206e6f6e657869737460008201527f656e7420746f6b656e0000000000000000000000000000000000000000000000602082015250565b7f45524337323155524953746f726167653a2055524920736574206f66206e6f6e60008201527f6578697374656e7420746f6b656e000000000000000000000000000000000000602082015250565b7f4552433732313a206d696e7420746f20746865207a65726f2061646472657373600082015250565b7f45524337323155524953746f726167653a2055524920717565727920666f722060008201527f6e6f6e6578697374656e7420746f6b656e000000000000000000000000000000602082015250565b7f4552433732313a20617070726f76656420717565727920666f72206e6f6e657860008201527f697374656e7420746f6b656e0000000000000000000000000000000000000000602082015250565b7f4552433732313a207472616e73666572206f6620746f6b656e2074686174206960008201527f73206e6f74206f776e0000000000000000000000000000000000000000000000602082015250565b7f4552433732314d657461646174613a2055524920717565727920666f72206e6f60008201527f6e6578697374656e7420746f6b656e0000000000000000000000000000000000602082015250565b7f4552433732313a20617070726f76616c20746f2063757272656e74206f776e6560008201527f7200000000000000000000000000000000000000000000000000000000000000602082015250565b7f4552433732313a207472616e736665722063616c6c6572206973206e6f74206f60008201527f776e6572206e6f7220617070726f766564000000000000000000000000000000602082015250565b6132ad81612bc6565b81146132b857600080fd5b50565b6132c481612bd8565b81146132cf57600080fd5b50565b6132db81612be4565b81146132e657600080fd5b50565b6132f281612c30565b81146132fd57600080fd5b5056fea2646970667358221220a983beaf0e6667efae06253c33d594ff7897bcad1cb135740bafc608a07f861d64736f6c63430008040033",
  "linkReferences": {},
  "deployedLinkReferences": {}
}