{
  "_format": "hh-sol-artifact-1",
  "contractName": "FilecoinNFTHack",
  "sourceName": "contracts/FilecoinNFTHack.sol",
  "abi": [
    {
      "inputs": [],
      "stateMutability": "nonpayable",
      "type": "constructor"
    },
    {
      "anonymous": false,
      "inputs": [
        {
          "indexed": true,
          "internalType": "address",
          "name": "owner",
          "type": "address"
        },
        {
          "indexed": true,
          "internalType": "address",
          "name": "approved",
          "type": "address"
        },
        {
          "indexed": true,
          "internalType": "uint256",
          "name": "tokenId",
          "type": "uint256"
        }
      ],
      "name": "Approval",
      "type": "event"
    },
    {
      "anonymous": false,
      "inputs": [
        {
          "indexed": true,
          "internalType": "address",
          "name": "owner",
          "type": "address"
        },
        {
          "indexed": true,
          "internalType": "address",
          "name": "operator",
          "type": "address"
        },
        {
          "indexed": false,
          "internalType": "bool",
          "name": "approved",
          "type": "bool"
        }
      ],
      "name": "ApprovalForAll",
      "type": "event"
    },
    {
      "anonymous": false,
      "inputs": [
        {
          "indexed": false,
          "internalType": "address",
          "name": "sender",
          "type": "address"
        },
        {
          "indexed": false,
          "internalType": "uint256",
          "name": "tokenId",
          "type": "uint256"
        },
        {
          "indexed": false,
          "internalType": "uint256",
          "name": "tokensLeft",
          "type": "uint256"
        }
      ],
      "name": "NewEpicNFTMinted",
      "type": "event"
    },
    {
      "anonymous": false,
      "inputs": [
        {
          "indexed": true,
          "internalType": "address",
          "name": "from",
          "type": "address"
        },
        {
          "indexed": true,
          "internalType": "address",
          "name": "to",
          "type": "address"
        },
        {
          "indexed": true,
          "internalType": "uint256",
          "name": "tokenId",
          "type": "uint256"
        }
      ],
      "name": "Transfer",
      "type": "event"
    },
    {
      "inputs": [
        {
          "internalType": "address",
          "name": "to",
          "type": "address"
        },
        {
          "internalType": "uint256",
          "name": "tokenId",
          "type": "uint256"
        }
      ],
      "name": "approve",
      "outputs": [],
      "stateMutability": "nonpayable",
      "type": "function"
    },
    {
      "inputs": [
        {
          "internalType": "address",
          "name": "owner",
          "type": "address"
        }
      ],
      "name": "balanceOf",
      "outputs": [
        {
          "internalType": "uint256",
          "name": "",
          "type": "uint256"
        }
      ],
      "stateMutability": "view",
      "type": "function"
    },
    {
      "inputs": [
        {
          "internalType": "uint256",
          "name": "tokenId",
          "type": "uint256"
        }
      ],
      "name": "getApproved",
      "outputs": [
        {
          "internalType": "address",
          "name": "",
          "type": "address"
        }
      ],
      "stateMutability": "view",
      "type": "function"
    },
    {
      "inputs": [
        {
          "internalType": "address",
          "name": "owner",
          "type": "address"
        },
        {
          "internalType": "address",
          "name": "operator",
          "type": "address"
        }
      ],
      "name": "isApprovedForAll",
      "outputs": [
        {
          "internalType": "bool",
          "name": "",
          "type": "bool"
        }
      ],
      "stateMutability": "view",
      "type": "function"
    },
    {
      "inputs": [
        {
          "internalType": "string",
          "name": "name",
          "type": "string"
        }
      ],
      "name": "makeAnEpicNFT",
      "outputs": [],
      "stateMutability": "nonpayable",
      "type": "function"
    },
    {
      "inputs": [],
      "name": "name",
      "outputs": [
        {
          "internalType": "string",
          "name": "",
          "type": "string"
        }
      ],
      "stateMutability": "view",
      "type": "function"
    },
    {
      "inputs": [
        {
          "internalType": "uint256",
          "name": "tokenId",
          "type": "uint256"
        }
      ],
      "name": "ownerOf",
      "outputs": [
        {
          "internalType": "address",
          "name": "",
          "type": "address"
        }
      ],
      "stateMutability": "view",
      "type": "function"
    },
    {
      "inputs": [
        {
          "internalType": "address",
          "name": "from",
          "type": "address"
        },
        {
          "internalType": "address",
          "name": "to",
          "type": "address"
        },
        {
          "internalType": "uint256",
          "name": "tokenId",
          "type": "uint256"
        }
      ],
      "name": "safeTransferFrom",
      "outputs": [],
      "stateMutability": "nonpayable",
      "type": "function"
    },
    {
      "inputs": [
        {
          "internalType": "address",
          "name": "from",
          "type": "address"
        },
        {
          "internalType": "address",
          "name": "to",
          "type": "address"
        },
        {
          "internalType": "uint256",
          "name": "tokenId",
          "type": "uint256"
        },
        {
          "internalType": "bytes",
          "name": "_data",
          "type": "bytes"
        }
      ],
      "name": "safeTransferFrom",
      "outputs": [],
      "stateMutability": "nonpayable",
      "type": "function"
    },
    {
      "inputs": [
        {
          "internalType": "address",
          "name": "operator",
          "type": "address"
        },
        {
          "internalType": "bool",
          "name": "approved",
          "type": "bool"
        }
      ],
      "name": "setApprovalForAll",
      "outputs": [],
      "stateMutability": "nonpayable",
      "type": "function"
    },
    {
      "inputs": [
        {
          "internalType": "bytes4",
          "name": "interfaceId",
          "type": "bytes4"
        }
      ],
      "name": "supportsInterface",
      "outputs": [
        {
          "internalType": "bool",
          "name": "",
          "type": "bool"
        }
      ],
      "stateMutability": "view",
      "type": "function"
    },
    {
      "inputs": [],
      "name": "symbol",
      "outputs": [
        {
          "internalType": "string",
          "name": "",
          "type": "string"
        }
      ],
      "stateMutability": "view",
      "type": "function"
    },
    {
      "inputs": [
        {
          "internalType": "uint256",
          "name": "tokenId",
          "type": "uint256"
        }
      ],
      "name": "tokenURI",
      "outputs": [
        {
          "internalType": "string",
          "name": "",
          "type": "string"
        }
      ],
      "stateMutability": "view",
      "type": "function"
    },
    {
      "inputs": [
        {
          "internalType": "address",
          "name": "from",
          "type": "address"
        },
        {
          "internalType": "address",
          "name": "to",
          "type": "address"
        },
        {
          "internalType": "uint256",
          "name": "tokenId",
          "type": "uint256"
        }
      ],
      "name": "transferFrom",
      "outputs": [],
      "stateMutability": "nonpayable",
      "type": "function"
    }
  ],
  "bytecode": "0x608060405260405180610160016040528061012f815260200162003a7561012f913960099080519060200190620000389291906200020c565b503480156200004657600080fd5b506040518060400160405280601581526020017f457468476c6f62616c204e46544861636b3230323200000000000000000000008152506040518060400160405280600881526020017f46696c65636f696e0000000000000000000000000000000000000000000000008152508160009080519060200190620000cb9291906200020c565b508060019080519060200190620000e49291906200020c565b505050620001326040518060400160405280601e81526020017f54686973206973206d79204e465420636f6e74726163742e20576f61682100008152506200014060201b62000d021760201c565b600a600881905550620003e9565b620001e081604051602401620001579190620002fd565b6040516020818303038152906040527f41304fac000000000000000000000000000000000000000000000000000000007bffffffffffffffffffffffffffffffffffffffffffffffffffffffff19166020820180517bffffffffffffffffffffffffffffffffffffffffffffffffffffffff8381831617835250505050620001e360201b60201c565b50565b60008151905060006a636f6e736f6c652e6c6f679050602083016000808483855afa5050505050565b8280546200021a9062000373565b90600052602060002090601f0160209004810192826200023e57600085556200028a565b82601f106200025957805160ff19168380011785556200028a565b828001600101855582156200028a579182015b82811115620002895782518255916020019190600101906200026c565b5b5090506200029991906200029d565b5090565b5b80821115620002b85760008160009055506001016200029e565b5090565b6000620002c98262000321565b620002d581856200032c565b9350620002e78185602086016200033d565b620002f281620003d8565b840191505092915050565b60006020820190508181036000830152620003198184620002bc565b905092915050565b600081519050919050565b600082825260208201905092915050565b60005b838110156200035d57808201518184015260208101905062000340565b838111156200036d576000848401525b50505050565b600060028204905060018216806200038c57607f821691505b60208210811415620003a357620003a2620003a9565b5b50919050565b7f4e487b7100000000000000000000000000000000000000000000000000000000600052602260045260246000fd5b6000601f19601f8301169050919050565b61367c80620003f96000396000f3fe608060405234801561001057600080fd5b50600436106100ea5760003560e01c80636352211e1161008c578063a22cb46511610066578063a22cb4651461025b578063b88d4fde14610277578063c87b56dd14610293578063e985e9c5146102c3576100ea565b80636352211e146101dd57806370a082311461020d57806395d89b411461023d576100ea565b8063095ea7b3116100c8578063095ea7b31461016d57806323b872dd1461018957806339fa8daf146101a557806342842e0e146101c1576100ea565b806301ffc9a7146100ef57806306fdde031461011f578063081812fc1461013d575b600080fd5b6101096004803603810190610104919061226c565b6102f3565b60405161011691906128ae565b60405180910390f35b6101276103d5565b60405161013491906128c9565b60405180910390f35b610157600480360381019061015291906122ff565b610467565b6040516101649190612810565b60405180910390f35b61018760048036038101906101829190612230565b6104ec565b005b6101a3600480360381019061019e919061212a565b610604565b005b6101bf60048036038101906101ba91906122be565b610664565b005b6101db60048036038101906101d6919061212a565b610888565b005b6101f760048036038101906101f291906122ff565b6108a8565b6040516102049190612810565b60405180910390f35b610227600480360381019061022291906120c5565b61095a565b6040516102349190612b59565b60405180910390f35b610245610a12565b60405161025291906128c9565b60405180910390f35b610275600480360381019061027091906121f4565b610aa4565b005b610291600480360381019061028c9190612179565b610aba565b005b6102ad60048036038101906102a891906122ff565b610b1c565b6040516102ba91906128c9565b60405180910390f35b6102dd60048036038101906102d891906120ee565b610c6e565b6040516102ea91906128ae565b60405180910390f35b60007f80ac58cd000000000000000000000000000000000000000000000000000000007bffffffffffffffffffffffffffffffffffffffffffffffffffffffff1916827bffffffffffffffffffffffffffffffffffffffffffffffffffffffff191614806103be57507f5b5e139f000000000000000000000000000000000000000000000000000000007bffffffffffffffffffffffffffffffffffffffffffffffffffffffff1916827bffffffffffffffffffffffffffffffffffffffffffffffffffffffff1916145b806103ce57506103cd82610d9b565b5b9050919050565b6060600080546103e490612e1e565b80601f016020809104026020016040519081016040528092919081815260200182805461041090612e1e565b801561045d5780601f106104325761010080835404028352916020019161045d565b820191906000526020600020905b81548152906001019060200180831161044057829003601f168201915b5050505050905090565b600061047282610e05565b6104b1576040517f08c379a00000000000000000000000000000000000000000000000000000000081526004016104a890612ab9565b60405180910390fd5b6004600083815260200190815260200160002060009054906101000a900473ffffffffffffffffffffffffffffffffffffffff169050919050565b60006104f7826108a8565b90508073ffffffffffffffffffffffffffffffffffffffff168373ffffffffffffffffffffffffffffffffffffffff161415610568576040517f08c379a000000000000000000000000000000000000000000000000000000000815260040161055f90612b19565b60405180910390fd5b8073ffffffffffffffffffffffffffffffffffffffff16610587610e71565b73ffffffffffffffffffffffffffffffffffffffff1614806105b657506105b5816105b0610e71565b610c6e565b5b6105f5576040517f08c379a00000000000000000000000000000000000000000000000000000000081526004016105ec906129f9565b60405180910390fd5b6105ff8383610e79565b505050565b61061561060f610e71565b82610f32565b610654576040517f08c379a000000000000000000000000000000000000000000000000000000000815260040161064b90612b39565b60405180910390fd5b61065f838383611010565b505050565b61066f60085461126c565b61068161067c6007611305565b61126c565b60085461068e6007611305565b1061069857600080fd5b60006106a46007611305565b905060006009836040516020016106bc92919061277a565b60405160208183030381529060405290506000610701846106dc84611313565b6040516020016106ed9291906127a9565b604051602081830303815290604052611313565b905060008160405160200161071691906127ee565b60405160208183030381529060405290506107656040518060400160405280601581526020017f0a2d2d2d2d2d2d2d2d2d2d2d2d2d2d2d2d2d2d2d2d0000000000000000000000815250610d02565b61076e81610d02565b6107ac6040518060400160405280601581526020017f2d2d2d2d2d2d2d2d2d2d2d2d2d2d2d2d2d2d2d2d0a0000000000000000000000815250610d02565b6107b633856114d1565b6107c084826114ef565b6107ca6007611563565b6107ed6040518060600160405280602581526020016135e2602591398533611579565b6108396040518060400160405280601281526020017f4e465473206c65667420746f206d696e743a0000000000000000000000000000815250856008546108349190612d34565b611618565b7f9e9e101732de0887d722bd72c01c5439edc857c9c2c763953d67e66de12441d333858660085461086a9190612d34565b60405161087993929190612877565b60405180910390a15050505050565b6108a383838360405180602001604052806000815250610aba565b505050565b6000806002600084815260200190815260200160002060009054906101000a900473ffffffffffffffffffffffffffffffffffffffff169050600073ffffffffffffffffffffffffffffffffffffffff168173ffffffffffffffffffffffffffffffffffffffff161415610951576040517f08c379a000000000000000000000000000000000000000000000000000000000815260040161094890612a39565b60405180910390fd5b80915050919050565b60008073ffffffffffffffffffffffffffffffffffffffff168273ffffffffffffffffffffffffffffffffffffffff1614156109cb576040517f08c379a00000000000000000000000000000000000000000000000000000000081526004016109c290612a19565b60405180910390fd5b600360008373ffffffffffffffffffffffffffffffffffffffff1673ffffffffffffffffffffffffffffffffffffffff168152602001908152602001600020549050919050565b606060018054610a2190612e1e565b80601f0160208091040260200160405190810160405280929190818152602001828054610a4d90612e1e565b8015610a9a5780601f10610a6f57610100808354040283529160200191610a9a565b820191906000526020600020905b815481529060010190602001808311610a7d57829003601f168201915b5050505050905090565b610ab6610aaf610e71565b83836116b4565b5050565b610acb610ac5610e71565b83610f32565b610b0a576040517f08c379a0000000000000000000000000000000000000000000000000000000008152600401610b0190612b39565b60405180910390fd5b610b1684848484611821565b50505050565b6060610b2782610e05565b610b66576040517f08c379a0000000000000000000000000000000000000000000000000000000008152600401610b5d90612a99565b60405180910390fd5b6000600660008481526020019081526020016000208054610b8690612e1e565b80601f0160208091040260200160405190810160405280929190818152602001828054610bb290612e1e565b8015610bff5780601f10610bd457610100808354040283529160200191610bff565b820191906000526020600020905b815481529060010190602001808311610be257829003601f168201915b505050505090506000610c1061187d565b9050600081511415610c26578192505050610c69565b600082511115610c5b578082604051602001610c43929190612756565b60405160208183030381529060405292505050610c69565b610c6484611894565b925050505b919050565b6000600560008473ffffffffffffffffffffffffffffffffffffffff1673ffffffffffffffffffffffffffffffffffffffff16815260200190815260200160002060008373ffffffffffffffffffffffffffffffffffffffff1673ffffffffffffffffffffffffffffffffffffffff16815260200190815260200160002060009054906101000a900460ff16905092915050565b610d9881604051602401610d1691906128c9565b6040516020818303038152906040527f41304fac000000000000000000000000000000000000000000000000000000007bffffffffffffffffffffffffffffffffffffffffffffffffffffffff19166020820180517bffffffffffffffffffffffffffffffffffffffffffffffffffffffff838183161783525050505061193b565b50565b60007f01ffc9a7000000000000000000000000000000000000000000000000000000007bffffffffffffffffffffffffffffffffffffffffffffffffffffffff1916827bffffffffffffffffffffffffffffffffffffffffffffffffffffffff1916149050919050565b60008073ffffffffffffffffffffffffffffffffffffffff166002600084815260200190815260200160002060009054906101000a900473ffffffffffffffffffffffffffffffffffffffff1673ffffffffffffffffffffffffffffffffffffffff1614159050919050565b600033905090565b816004600083815260200190815260200160002060006101000a81548173ffffffffffffffffffffffffffffffffffffffff021916908373ffffffffffffffffffffffffffffffffffffffff160217905550808273ffffffffffffffffffffffffffffffffffffffff16610eec836108a8565b73ffffffffffffffffffffffffffffffffffffffff167f8c5be1e5ebec7d5bd14f71427d1e84f3dd0314c0f7b2291e5b200ac8c7c3b92560405160405180910390a45050565b6000610f3d82610e05565b610f7c576040517f08c379a0000000000000000000000000000000000000000000000000000000008152600401610f73906129d9565b60405180910390fd5b6000610f87836108a8565b90508073ffffffffffffffffffffffffffffffffffffffff168473ffffffffffffffffffffffffffffffffffffffff161480610ff657508373ffffffffffffffffffffffffffffffffffffffff16610fde84610467565b73ffffffffffffffffffffffffffffffffffffffff16145b8061100757506110068185610c6e565b5b91505092915050565b8273ffffffffffffffffffffffffffffffffffffffff16611030826108a8565b73ffffffffffffffffffffffffffffffffffffffff1614611086576040517f08c379a000000000000000000000000000000000000000000000000000000000815260040161107d90612ad9565b60405180910390fd5b600073ffffffffffffffffffffffffffffffffffffffff168273ffffffffffffffffffffffffffffffffffffffff1614156110f6576040517f08c379a00000000000000000000000000000000000000000000000000000000081526004016110ed90612999565b60405180910390fd5b611101838383611964565b61110c600082610e79565b6001600360008573ffffffffffffffffffffffffffffffffffffffff1673ffffffffffffffffffffffffffffffffffffffff168152602001908152602001600020600082825461115c9190612d34565b925050819055506001600360008473ffffffffffffffffffffffffffffffffffffffff1673ffffffffffffffffffffffffffffffffffffffff16815260200190815260200160002060008282546111b39190612c53565b92505081905550816002600083815260200190815260200160002060006101000a81548173ffffffffffffffffffffffffffffffffffffffff021916908373ffffffffffffffffffffffffffffffffffffffff160217905550808273ffffffffffffffffffffffffffffffffffffffff168473ffffffffffffffffffffffffffffffffffffffff167fddf252ad1be2c89b69c2b068fc378daa952ba7f163c4a11628f55a4df523b3ef60405160405180910390a4505050565b611302816040516024016112809190612b59565b6040516020818303038152906040527ff5b1bba9000000000000000000000000000000000000000000000000000000007bffffffffffffffffffffffffffffffffffffffffffffffffffffffff19166020820180517bffffffffffffffffffffffffffffffffffffffffffffffffffffffff838183161783525050505061193b565b50565b600081600001549050919050565b6060600082519050600081141561133c57604051806020016040528060008152509150506114cc565b6000600360028361134d9190612c53565b6113579190612ca9565b60046113639190612cda565b905060006020826113749190612c53565b67ffffffffffffffff8111156113b3577f4e487b7100000000000000000000000000000000000000000000000000000000600052604160045260246000fd5b6040519080825280601f01601f1916602001820160405280156113e55781602001600182028036833780820191505090505b5090506000604051806060016040528060408152602001613607604091399050600181016020830160005b868110156114895760038101905062ffffff818a015116603f8160121c168401518060081b905060ff603f83600c1c1686015116810190508060081b905060ff603f8360061c1686015116810190508060081b905060ff603f831686015116810190508060e01b90508084526004840193505050611410565b5060038606600181146114a357600281146114b3576114be565b613d3d60f01b60028303526114be565b603d60f81b60018303525b508484525050819450505050505b919050565b6114eb828260405180602001604052806000815250611969565b5050565b6114f882610e05565b611537576040517f08c379a000000000000000000000000000000000000000000000000000000000815260040161152e90612a59565b60405180910390fd5b8060066000848152602001908152602001600020908051906020019061155e929190611ee9565b505050565b6001816000016000828254019250508190555050565b6116138383836040516024016115919392919061291b565b6040516020818303038152906040527fe3849f79000000000000000000000000000000000000000000000000000000007bffffffffffffffffffffffffffffffffffffffffffffffffffffffff19166020820180517bffffffffffffffffffffffffffffffffffffffffffffffffffffffff838183161783525050505061193b565b505050565b6116b0828260405160240161162e9291906128eb565b6040516020818303038152906040527f9710a9d0000000000000000000000000000000000000000000000000000000007bffffffffffffffffffffffffffffffffffffffffffffffffffffffff19166020820180517bffffffffffffffffffffffffffffffffffffffffffffffffffffffff838183161783525050505061193b565b5050565b8173ffffffffffffffffffffffffffffffffffffffff168373ffffffffffffffffffffffffffffffffffffffff161415611723576040517f08c379a000000000000000000000000000000000000000000000000000000000815260040161171a906129b9565b60405180910390fd5b80600560008573ffffffffffffffffffffffffffffffffffffffff1673ffffffffffffffffffffffffffffffffffffffff16815260200190815260200160002060008473ffffffffffffffffffffffffffffffffffffffff1673ffffffffffffffffffffffffffffffffffffffff16815260200190815260200160002060006101000a81548160ff0219169083151502179055508173ffffffffffffffffffffffffffffffffffffffff168373ffffffffffffffffffffffffffffffffffffffff167f17307eab39ab6107e8899845ad3d59bd9653f200f220920489ca2b5937696c318360405161181491906128ae565b60405180910390a3505050565b61182c848484611010565b611838848484846119c4565b611877576040517f08c379a000000000000000000000000000000000000000000000000000000000815260040161186e90612959565b60405180910390fd5b50505050565b606060405180602001604052806000815250905090565b606061189f82610e05565b6118de576040517f08c379a00000000000000000000000000000000000000000000000000000000081526004016118d590612af9565b60405180910390fd5b60006118e861187d565b905060008151116119085760405180602001604052806000815250611933565b8061191284611b5b565b604051602001611923929190612756565b6040516020818303038152906040525b915050919050565b60008151905060006a636f6e736f6c652e6c6f679050602083016000808483855afa5050505050565b505050565b6119738383611d08565b61198060008484846119c4565b6119bf576040517f08c379a00000000000000000000000000000000000000000000000000000000081526004016119b690612959565b60405180910390fd5b505050565b60006119e58473ffffffffffffffffffffffffffffffffffffffff16611ed6565b15611b4e578373ffffffffffffffffffffffffffffffffffffffff1663150b7a02611a0e610e71565b8786866040518563ffffffff1660e01b8152600401611a30949392919061282b565b602060405180830381600087803b158015611a4a57600080fd5b505af1925050508015611a7b57506040513d601f19601f82011682018060405250810190611a789190612295565b60015b611afe573d8060008114611aab576040519150601f19603f3d011682016040523d82523d6000602084013e611ab0565b606091505b50600081511415611af6576040517f08c379a0000000000000000000000000000000000000000000000000000000008152600401611aed90612959565b60405180910390fd5b805181602001fd5b63150b7a0260e01b7bffffffffffffffffffffffffffffffffffffffffffffffffffffffff1916817bffffffffffffffffffffffffffffffffffffffffffffffffffffffff191614915050611b53565b600190505b949350505050565b60606000821415611ba3576040518060400160405280600181526020017f30000000000000000000000000000000000000000000000000000000000000008152509050611d03565b600082905060005b60008214611bd5578080611bbe90612e81565b915050600a82611bce9190612ca9565b9150611bab565b60008167ffffffffffffffff811115611c17577f4e487b7100000000000000000000000000000000000000000000000000000000600052604160045260246000fd5b6040519080825280601f01601f191660200182016040528015611c495781602001600182028036833780820191505090505b5090505b60008514611cfc57600182611c629190612d34565b9150600a85611c719190612eca565b6030611c7d9190612c53565b60f81b818381518110611cb9577f4e487b7100000000000000000000000000000000000000000000000000000000600052603260045260246000fd5b60200101907effffffffffffffffffffffffffffffffffffffffffffffffffffffffffffff1916908160001a905350600a85611cf59190612ca9565b9450611c4d565b8093505050505b919050565b600073ffffffffffffffffffffffffffffffffffffffff168273ffffffffffffffffffffffffffffffffffffffff161415611d78576040517f08c379a0000000000000000000000000000000000000000000000000000000008152600401611d6f90612a79565b60405180910390fd5b611d8181610e05565b15611dc1576040517f08c379a0000000000000000000000000000000000000000000000000000000008152600401611db890612979565b60405180910390fd5b611dcd60008383611964565b6001600360008473ffffffffffffffffffffffffffffffffffffffff1673ffffffffffffffffffffffffffffffffffffffff1681526020019081526020016000206000828254611e1d9190612c53565b92505081905550816002600083815260200190815260200160002060006101000a81548173ffffffffffffffffffffffffffffffffffffffff021916908373ffffffffffffffffffffffffffffffffffffffff160217905550808273ffffffffffffffffffffffffffffffffffffffff16600073ffffffffffffffffffffffffffffffffffffffff167fddf252ad1be2c89b69c2b068fc378daa952ba7f163c4a11628f55a4df523b3ef60405160405180910390a45050565b600080823b905060008111915050919050565b828054611ef590612e1e565b90600052602060002090601f016020900481019282611f175760008555611f5e565b82601f10611f3057805160ff1916838001178555611f5e565b82800160010185558215611f5e579182015b82811115611f5d578251825591602001919060010190611f42565b5b509050611f6b9190611f6f565b5090565b5b80821115611f88576000816000905550600101611f70565b5090565b6000611f9f611f9a84612b99565b612b74565b905082815260208101848484011115611fb757600080fd5b611fc2848285612ddc565b509392505050565b6000611fdd611fd884612bca565b612b74565b905082815260208101848484011115611ff557600080fd5b612000848285612ddc565b509392505050565b60008135905061201781613585565b92915050565b60008135905061202c8161359c565b92915050565b600081359050612041816135b3565b92915050565b600081519050612056816135b3565b92915050565b600082601f83011261206d57600080fd5b813561207d848260208601611f8c565b91505092915050565b600082601f83011261209757600080fd5b81356120a7848260208601611fca565b91505092915050565b6000813590506120bf816135ca565b92915050565b6000602082840312156120d757600080fd5b60006120e584828501612008565b91505092915050565b6000806040838503121561210157600080fd5b600061210f85828601612008565b925050602061212085828601612008565b9150509250929050565b60008060006060848603121561213f57600080fd5b600061214d86828701612008565b935050602061215e86828701612008565b925050604061216f868287016120b0565b9150509250925092565b6000806000806080858703121561218f57600080fd5b600061219d87828801612008565b94505060206121ae87828801612008565b93505060406121bf878288016120b0565b925050606085013567ffffffffffffffff8111156121dc57600080fd5b6121e88782880161205c565b91505092959194509250565b6000806040838503121561220757600080fd5b600061221585828601612008565b92505060206122268582860161201d565b9150509250929050565b6000806040838503121561224357600080fd5b600061225185828601612008565b9250506020612262858286016120b0565b9150509250929050565b60006020828403121561227e57600080fd5b600061228c84828501612032565b91505092915050565b6000602082840312156122a757600080fd5b60006122b584828501612047565b91505092915050565b6000602082840312156122d057600080fd5b600082013567ffffffffffffffff8111156122ea57600080fd5b6122f684828501612086565b91505092915050565b60006020828403121561231157600080fd5b600061231f848285016120b0565b91505092915050565b61233181612d68565b82525050565b61234081612d7a565b82525050565b600061235182612c10565b61235b8185612c26565b935061236b818560208601612deb565b61237481612fb7565b840191505092915050565b600061238a82612c1b565b6123948185612c37565b93506123a4818560208601612deb565b6123ad81612fb7565b840191505092915050565b60006123c382612c1b565b6123cd8185612c48565b93506123dd818560208601612deb565b80840191505092915050565b600081546123f681612e1e565b6124008186612c48565b9450600182166000811461241b576001811461242c5761245f565b60ff1983168652818601935061245f565b61243585612bfb565b60005b8381101561245757815481890152600182019150602081019050612438565b838801955050505b50505092915050565b6000612475603283612c37565b915061248082612fc8565b604082019050919050565b6000612498601c83612c37565b91506124a382613017565b602082019050919050565b60006124bb602483612c37565b91506124c682613040565b604082019050919050565b60006124de601983612c37565b91506124e98261308f565b602082019050919050565b6000612501602c83612c37565b915061250c826130b8565b604082019050919050565b6000612524600d83612c48565b915061252f82613107565b600d82019050919050565b6000612547603883612c37565b915061255282613130565b604082019050919050565b600061256a602a83612c37565b91506125758261317f565b604082019050919050565b600061258d602983612c37565b9150612598826131ce565b604082019050919050565b60006125b0602e83612c37565b91506125bb8261321d565b604082019050919050565b60006125d3600283612c48565b91506125de8261326c565b600282019050919050565b60006125f6602083612c37565b915061260182613295565b602082019050919050565b6000612619603183612c37565b9150612624826132be565b604082019050919050565b600061263c602c83612c37565b91506126478261330d565b604082019050919050565b600061265f602983612c37565b915061266a8261335c565b604082019050919050565b6000612682602f83612c37565b915061268d826133ab565b604082019050919050565b60006126a5600a83612c48565b91506126b0826133fa565b600a82019050919050565b60006126c8602183612c37565b91506126d382613423565b604082019050919050565b60006126eb601d83612c48565b91506126f682613472565b601d82019050919050565b600061270e606583612c48565b91506127198261349b565b606582019050919050565b6000612731603183612c37565b915061273c82613536565b604082019050919050565b61275081612dd2565b82525050565b600061276282856123b8565b915061276e82846123b8565b91508190509392505050565b600061278682856123e9565b915061279282846123b8565b915061279d82612517565b91508190509392505050565b60006127b482612698565b91506127c082856123b8565b91506127cb82612701565b91506127d782846123b8565b91506127e2826125c6565b91508190509392505050565b60006127f9826126de565b915061280582846123b8565b915081905092915050565b60006020820190506128256000830184612328565b92915050565b60006080820190506128406000830187612328565b61284d6020830186612328565b61285a6040830185612747565b818103606083015261286c8184612346565b905095945050505050565b600060608201905061288c6000830186612328565b6128996020830185612747565b6128a66040830184612747565b949350505050565b60006020820190506128c36000830184612337565b92915050565b600060208201905081810360008301526128e3818461237f565b905092915050565b60006040820190508181036000830152612905818561237f565b90506129146020830184612747565b9392505050565b60006060820190508181036000830152612935818661237f565b90506129446020830185612747565b6129516040830184612328565b949350505050565b6000602082019050818103600083015261297281612468565b9050919050565b600060208201905081810360008301526129928161248b565b9050919050565b600060208201905081810360008301526129b2816124ae565b9050919050565b600060208201905081810360008301526129d2816124d1565b9050919050565b600060208201905081810360008301526129f2816124f4565b9050919050565b60006020820190508181036000830152612a128161253a565b9050919050565b60006020820190508181036000830152612a328161255d565b9050919050565b60006020820190508181036000830152612a5281612580565b9050919050565b60006020820190508181036000830152612a72816125a3565b9050919050565b60006020820190508181036000830152612a92816125e9565b9050919050565b60006020820190508181036000830152612ab28161260c565b9050919050565b60006020820190508181036000830152612ad28161262f565b9050919050565b60006020820190508181036000830152612af281612652565b9050919050565b60006020820190508181036000830152612b1281612675565b9050919050565b60006020820190508181036000830152612b32816126bb565b9050919050565b60006020820190508181036000830152612b5281612724565b9050919050565b6000602082019050612b6e6000830184612747565b92915050565b6000612b7e612b8f565b9050612b8a8282612e50565b919050565b6000604051905090565b600067ffffffffffffffff821115612bb457612bb3612f88565b5b612bbd82612fb7565b9050602081019050919050565b600067ffffffffffffffff821115612be557612be4612f88565b5b612bee82612fb7565b9050602081019050919050565b60008190508160005260206000209050919050565b600081519050919050565b600081519050919050565b600082825260208201905092915050565b600082825260208201905092915050565b600081905092915050565b6000612c5e82612dd2565b9150612c6983612dd2565b9250827fffffffffffffffffffffffffffffffffffffffffffffffffffffffffffffffff03821115612c9e57612c9d612efb565b5b828201905092915050565b6000612cb482612dd2565b9150612cbf83612dd2565b925082612ccf57612cce612f2a565b5b828204905092915050565b6000612ce582612dd2565b9150612cf083612dd2565b9250817fffffffffffffffffffffffffffffffffffffffffffffffffffffffffffffffff0483118215151615612d2957612d28612efb565b5b828202905092915050565b6000612d3f82612dd2565b9150612d4a83612dd2565b925082821015612d5d57612d5c612efb565b5b828203905092915050565b6000612d7382612db2565b9050919050565b60008115159050919050565b60007fffffffff0000000000000000000000000000000000000000000000000000000082169050919050565b600073ffffffffffffffffffffffffffffffffffffffff82169050919050565b6000819050919050565b82818337600083830152505050565b60005b83811015612e09578082015181840152602081019050612dee565b83811115612e18576000848401525b50505050565b60006002820490506001821680612e3657607f821691505b60208210811415612e4a57612e49612f59565b5b50919050565b612e5982612fb7565b810181811067ffffffffffffffff82111715612e7857612e77612f88565b5b80604052505050565b6000612e8c82612dd2565b91507fffffffffffffffffffffffffffffffffffffffffffffffffffffffffffffffff821415612ebf57612ebe612efb565b5b600182019050919050565b6000612ed582612dd2565b9150612ee083612dd2565b925082612ef057612eef612f2a565b5b828206905092915050565b7f4e487b7100000000000000000000000000000000000000000000000000000000600052601160045260246000fd5b7f4e487b7100000000000000000000000000000000000000000000000000000000600052601260045260246000fd5b7f4e487b7100000000000000000000000000000000000000000000000000000000600052602260045260246000fd5b7f4e487b7100000000000000000000000000000000000000000000000000000000600052604160045260246000fd5b6000601f19601f8301169050919050565b7f4552433732313a207472616e7366657220746f206e6f6e20455243373231526560008201527f63656976657220696d706c656d656e7465720000000000000000000000000000602082015250565b7f4552433732313a20746f6b656e20616c7265616479206d696e74656400000000600082015250565b7f4552433732313a207472616e7366657220746f20746865207a65726f2061646460008201527f7265737300000000000000000000000000000000000000000000000000000000602082015250565b7f4552433732313a20617070726f766520746f2063616c6c657200000000000000600082015250565b7f4552433732313a206f70657261746f7220717565727920666f72206e6f6e657860008201527f697374656e7420746f6b656e0000000000000000000000000000000000000000602082015250565b7f3c2f746578743e3c2f7376673e00000000000000000000000000000000000000600082015250565b7f4552433732313a20617070726f76652063616c6c6572206973206e6f74206f7760008201527f6e6572206e6f7220617070726f76656420666f7220616c6c0000000000000000602082015250565b7f4552433732313a2062616c616e636520717565727920666f7220746865207a6560008201527f726f206164647265737300000000000000000000000000000000000000000000602082015250565b7f4552433732313a206f776e657220717565727920666f72206e6f6e657869737460008201527f656e7420746f6b656e0000000000000000000000000000000000000000000000602082015250565b7f45524337323155524953746f726167653a2055524920736574206f66206e6f6e60008201527f6578697374656e7420746f6b656e000000000000000000000000000000000000602082015250565b7f227d000000000000000000000000000000000000000000000000000000000000600082015250565b7f4552433732313a206d696e7420746f20746865207a65726f2061646472657373600082015250565b7f45524337323155524953746f726167653a2055524920717565727920666f722060008201527f6e6f6e6578697374656e7420746f6b656e000000000000000000000000000000602082015250565b7f4552433732313a20617070726f76656420717565727920666f72206e6f6e657860008201527f697374656e7420746f6b656e0000000000000000000000000000000000000000602082015250565b7f4552433732313a207472616e73666572206f6620746f6b656e2074686174206960008201527f73206e6f74206f776e0000000000000000000000000000000000000000000000602082015250565b7f4552433732314d657461646174613a2055524920717565727920666f72206e6f60008201527f6e6578697374656e7420746f6b656e0000000000000000000000000000000000602082015250565b7f7b226e616d65223a202200000000000000000000000000000000000000000000600082015250565b7f4552433732313a20617070726f76616c20746f2063757272656e74206f776e6560008201527f7200000000000000000000000000000000000000000000000000000000000000602082015250565b7f646174613a6170706c69636174696f6e2f6a736f6e3b6261736536342c000000600082015250565b7f222c20226465736372697074696f6e223a20225468652062657374204e46542060008201527f4861636b206f66203230323020736f2066617220666f722073757265212e222c60208201527f2022696d616765223a2022646174613a696d6167652f7376672b786d6c3b626160408201527f736536342c000000000000000000000000000000000000000000000000000000606082015250565b7f4552433732313a207472616e736665722063616c6c6572206973206e6f74206f60008201527f776e6572206e6f7220617070726f766564000000000000000000000000000000602082015250565b61358e81612d68565b811461359957600080fd5b50565b6135a581612d7a565b81146135b057600080fd5b50565b6135bc81612d86565b81146135c757600080fd5b50565b6135d381612dd2565b81146135de57600080fd5b5056fe416e204e465420772f20494420257320686173206265656e206d696e74656420746f2025734142434445464748494a4b4c4d4e4f505152535455565758595a6162636465666768696a6b6c6d6e6f707172737475767778797a303132333435363738392b2fa26469706673582212203ef11bf0e13b73621bc29a837d7836ff8d5584524d43a69f29f4e0bc5a7f7fa964736f6c634300080400333c73766720786d6c6e733d27687474703a2f2f7777772e77332e6f72672f323030302f73766727207072657365727665417370656374526174696f3d27784d696e594d696e206d656574272076696577426f783d273020302033353020333530273e3c7374796c653e2e62617365207b2066696c6c3a2077686974653b20666f6e742d66616d696c793a2073657269663b20666f6e742d73697a653a20323470783b207d3c2f7374796c653e3c726563742077696474683d273130302527206865696768743d2731303025272066696c6c3d27626c61636b27202f3e3c7465787420783d273530252720793d273530252720636c6173733d27626173652720646f6d696e616e742d626173656c696e653d276d6964646c652720746578742d616e63686f723d276d6964646c65273e",
  "linkReferences": {},
  "deployedLinkReferences": {}
}