{
  "_format": "hh-sol-artifact-1",
  "contractName": "FilecoinNFTHack",
  "sourceName": "contracts/FilecoinNFTHack.sol",
  "abi": [
    {
      "inputs": [],
      "stateMutability": "nonpayable",
      "type": "constructor"
    },
    {
      "anonymous": false,
      "inputs": [
        {
          "indexed": true,
          "internalType": "address",
          "name": "owner",
          "type": "address"
        },
        {
          "indexed": true,
          "internalType": "address",
          "name": "approved",
          "type": "address"
        },
        {
          "indexed": true,
          "internalType": "uint256",
          "name": "tokenId",
          "type": "uint256"
        }
      ],
      "name": "Approval",
      "type": "event"
    },
    {
      "anonymous": false,
      "inputs": [
        {
          "indexed": true,
          "internalType": "address",
          "name": "owner",
          "type": "address"
        },
        {
          "indexed": true,
          "internalType": "address",
          "name": "operator",
          "type": "address"
        },
        {
          "indexed": false,
          "internalType": "bool",
          "name": "approved",
          "type": "bool"
        }
      ],
      "name": "ApprovalForAll",
      "type": "event"
    },
    {
      "anonymous": false,
      "inputs": [
        {
          "indexed": false,
          "internalType": "address",
          "name": "sender",
          "type": "address"
        },
        {
          "indexed": false,
          "internalType": "uint256",
          "name": "tokenId",
          "type": "uint256"
        }
      ],
      "name": "NewEpicNFTMinted",
      "type": "event"
    },
    {
      "anonymous": false,
      "inputs": [
        {
          "indexed": true,
          "internalType": "address",
          "name": "from",
          "type": "address"
        },
        {
          "indexed": true,
          "internalType": "address",
          "name": "to",
          "type": "address"
        },
        {
          "indexed": true,
          "internalType": "uint256",
          "name": "tokenId",
          "type": "uint256"
        }
      ],
      "name": "Transfer",
      "type": "event"
    },
    {
      "inputs": [
        {
          "internalType": "address",
          "name": "to",
          "type": "address"
        },
        {
          "internalType": "uint256",
          "name": "tokenId",
          "type": "uint256"
        }
      ],
      "name": "approve",
      "outputs": [],
      "stateMutability": "nonpayable",
      "type": "function"
    },
    {
      "inputs": [
        {
          "internalType": "address",
          "name": "owner",
          "type": "address"
        }
      ],
      "name": "balanceOf",
      "outputs": [
        {
          "internalType": "uint256",
          "name": "",
          "type": "uint256"
        }
      ],
      "stateMutability": "view",
      "type": "function"
    },
    {
      "inputs": [
        {
          "internalType": "uint256",
          "name": "tokenId",
          "type": "uint256"
        }
      ],
      "name": "getApproved",
      "outputs": [
        {
          "internalType": "address",
          "name": "",
          "type": "address"
        }
      ],
      "stateMutability": "view",
      "type": "function"
    },
    {
      "inputs": [
        {
          "internalType": "address",
          "name": "owner",
          "type": "address"
        },
        {
          "internalType": "address",
          "name": "operator",
          "type": "address"
        }
      ],
      "name": "isApprovedForAll",
      "outputs": [
        {
          "internalType": "bool",
          "name": "",
          "type": "bool"
        }
      ],
      "stateMutability": "view",
      "type": "function"
    },
    {
      "inputs": [
        {
          "internalType": "string",
          "name": "name",
          "type": "string"
        }
      ],
      "name": "makeAnEpicNFT",
      "outputs": [],
      "stateMutability": "nonpayable",
      "type": "function"
    },
    {
      "inputs": [],
      "name": "name",
      "outputs": [
        {
          "internalType": "string",
          "name": "",
          "type": "string"
        }
      ],
      "stateMutability": "view",
      "type": "function"
    },
    {
      "inputs": [
        {
          "internalType": "uint256",
          "name": "tokenId",
          "type": "uint256"
        }
      ],
      "name": "ownerOf",
      "outputs": [
        {
          "internalType": "address",
          "name": "",
          "type": "address"
        }
      ],
      "stateMutability": "view",
      "type": "function"
    },
    {
      "inputs": [
        {
          "internalType": "address",
          "name": "from",
          "type": "address"
        },
        {
          "internalType": "address",
          "name": "to",
          "type": "address"
        },
        {
          "internalType": "uint256",
          "name": "tokenId",
          "type": "uint256"
        }
      ],
      "name": "safeTransferFrom",
      "outputs": [],
      "stateMutability": "nonpayable",
      "type": "function"
    },
    {
      "inputs": [
        {
          "internalType": "address",
          "name": "from",
          "type": "address"
        },
        {
          "internalType": "address",
          "name": "to",
          "type": "address"
        },
        {
          "internalType": "uint256",
          "name": "tokenId",
          "type": "uint256"
        },
        {
          "internalType": "bytes",
          "name": "_data",
          "type": "bytes"
        }
      ],
      "name": "safeTransferFrom",
      "outputs": [],
      "stateMutability": "nonpayable",
      "type": "function"
    },
    {
      "inputs": [
        {
          "internalType": "address",
          "name": "operator",
          "type": "address"
        },
        {
          "internalType": "bool",
          "name": "approved",
          "type": "bool"
        }
      ],
      "name": "setApprovalForAll",
      "outputs": [],
      "stateMutability": "nonpayable",
      "type": "function"
    },
    {
      "inputs": [
        {
          "internalType": "bytes4",
          "name": "interfaceId",
          "type": "bytes4"
        }
      ],
      "name": "supportsInterface",
      "outputs": [
        {
          "internalType": "bool",
          "name": "",
          "type": "bool"
        }
      ],
      "stateMutability": "view",
      "type": "function"
    },
    {
      "inputs": [],
      "name": "symbol",
      "outputs": [
        {
          "internalType": "string",
          "name": "",
          "type": "string"
        }
      ],
      "stateMutability": "view",
      "type": "function"
    },
    {
      "inputs": [
        {
          "internalType": "uint256",
          "name": "tokenId",
          "type": "uint256"
        }
      ],
      "name": "tokenURI",
      "outputs": [
        {
          "internalType": "string",
          "name": "",
          "type": "string"
        }
      ],
      "stateMutability": "view",
      "type": "function"
    },
    {
      "inputs": [
        {
          "internalType": "address",
          "name": "from",
          "type": "address"
        },
        {
          "internalType": "address",
          "name": "to",
          "type": "address"
        },
        {
          "internalType": "uint256",
          "name": "tokenId",
          "type": "uint256"
        }
      ],
      "name": "transferFrom",
      "outputs": [],
      "stateMutability": "nonpayable",
      "type": "function"
    }
  ],
  "bytecode": "0x608060405260405180610160016040528061012f81526020016200394061012f913960099080519060200190620000389291906200020c565b503480156200004657600080fd5b506040518060400160405280600981526020017f5371756172654e465400000000000000000000000000000000000000000000008152506040518060400160405280600681526020017f53515541524500000000000000000000000000000000000000000000000000008152508160009080519060200190620000cb9291906200020c565b508060019080519060200190620000e49291906200020c565b505050620001326040518060400160405280601e81526020017f54686973206973206d79204e465420636f6e74726163742e20576f61682100008152506200014060201b62000ca71760201c565b600a600881905550620003e9565b620001e081604051602401620001579190620002fd565b6040516020818303038152906040527f41304fac000000000000000000000000000000000000000000000000000000007bffffffffffffffffffffffffffffffffffffffffffffffffffffffff19166020820180517bffffffffffffffffffffffffffffffffffffffffffffffffffffffff8381831617835250505050620001e360201b60201c565b50565b60008151905060006a636f6e736f6c652e6c6f679050602083016000808483855afa5050505050565b8280546200021a9062000373565b90600052602060002090601f0160209004810192826200023e57600085556200028a565b82601f106200025957805160ff19168380011785556200028a565b828001600101855582156200028a579182015b82811115620002895782518255916020019190600101906200026c565b5b5090506200029991906200029d565b5090565b5b80821115620002b85760008160009055506001016200029e565b5090565b6000620002c98262000321565b620002d581856200032c565b9350620002e78185602086016200033d565b620002f281620003d8565b840191505092915050565b60006020820190508181036000830152620003198184620002bc565b905092915050565b600081519050919050565b600082825260208201905092915050565b60005b838110156200035d57808201518184015260208101905062000340565b838111156200036d576000848401525b50505050565b600060028204905060018216806200038c57607f821691505b60208210811415620003a357620003a2620003a9565b5b50919050565b7f4e487b7100000000000000000000000000000000000000000000000000000000600052602260045260246000fd5b6000601f19601f8301169050919050565b61354780620003f96000396000f3fe608060405234801561001057600080fd5b50600436106100ea5760003560e01c80636352211e1161008c578063a22cb46511610066578063a22cb4651461025b578063b88d4fde14610277578063c87b56dd14610293578063e985e9c5146102c3576100ea565b80636352211e146101dd57806370a082311461020d57806395d89b411461023d576100ea565b8063095ea7b3116100c8578063095ea7b31461016d57806323b872dd1461018957806339fa8daf146101a557806342842e0e146101c1576100ea565b806301ffc9a7146100ef57806306fdde031461011f578063081812fc1461013d575b600080fd5b61010960048036038101906101049190612175565b6102f3565b60405161011691906127a9565b60405180910390f35b6101276103d5565b60405161013491906127c4565b60405180910390f35b61015760048036038101906101529190612208565b610467565b6040516101649190612719565b60405180910390f35b61018760048036038101906101829190612139565b6104ec565b005b6101a3600480360381019061019e9190612033565b610604565b005b6101bf60048036038101906101ba91906121c7565b610664565b005b6101db60048036038101906101d69190612033565b61082d565b005b6101f760048036038101906101f29190612208565b61084d565b6040516102049190612719565b60405180910390f35b61022760048036038101906102229190611fce565b6108ff565b6040516102349190612a24565b60405180910390f35b6102456109b7565b60405161025291906127c4565b60405180910390f35b610275600480360381019061027091906120fd565b610a49565b005b610291600480360381019061028c9190612082565b610a5f565b005b6102ad60048036038101906102a89190612208565b610ac1565b6040516102ba91906127c4565b60405180910390f35b6102dd60048036038101906102d89190611ff7565b610c13565b6040516102ea91906127a9565b60405180910390f35b60007f80ac58cd000000000000000000000000000000000000000000000000000000007bffffffffffffffffffffffffffffffffffffffffffffffffffffffff1916827bffffffffffffffffffffffffffffffffffffffffffffffffffffffff191614806103be57507f5b5e139f000000000000000000000000000000000000000000000000000000007bffffffffffffffffffffffffffffffffffffffffffffffffffffffff1916827bffffffffffffffffffffffffffffffffffffffffffffffffffffffff1916145b806103ce57506103cd82610d40565b5b9050919050565b6060600080546103e490612ce9565b80601f016020809104026020016040519081016040528092919081815260200182805461041090612ce9565b801561045d5780601f106104325761010080835404028352916020019161045d565b820191906000526020600020905b81548152906001019060200180831161044057829003601f168201915b5050505050905090565b600061047282610daa565b6104b1576040517f08c379a00000000000000000000000000000000000000000000000000000000081526004016104a890612984565b60405180910390fd5b6004600083815260200190815260200160002060009054906101000a900473ffffffffffffffffffffffffffffffffffffffff169050919050565b60006104f78261084d565b90508073ffffffffffffffffffffffffffffffffffffffff168373ffffffffffffffffffffffffffffffffffffffff161415610568576040517f08c379a000000000000000000000000000000000000000000000000000000000815260040161055f906129e4565b60405180910390fd5b8073ffffffffffffffffffffffffffffffffffffffff16610587610e16565b73ffffffffffffffffffffffffffffffffffffffff1614806105b657506105b5816105b0610e16565b610c13565b5b6105f5576040517f08c379a00000000000000000000000000000000000000000000000000000000081526004016105ec906128c4565b60405180910390fd5b6105ff8383610e1e565b505050565b61061561060f610e16565b82610ed7565b610654576040517f08c379a000000000000000000000000000000000000000000000000000000000815260040161064b90612a04565b60405180910390fd5b61065f838383610fb5565b505050565b61066f600854611211565b61068161067c60076112aa565b611211565b60085461068e60076112aa565b1061069857600080fd5b60006106a460076112aa565b905060006009836040516020016106bc929190612683565b60405160208183030381529060405290506000610701846106dc846112b8565b6040516020016106ed9291906126b2565b6040516020818303038152906040526112b8565b905060008160405160200161071691906126f7565b60405160208183030381529060405290506107656040518060400160405280601581526020017f0a2d2d2d2d2d2d2d2d2d2d2d2d2d2d2d2d2d2d2d2d0000000000000000000000815250610ca7565b61076e81610ca7565b6107ac6040518060400160405280601581526020017f2d2d2d2d2d2d2d2d2d2d2d2d2d2d2d2d2d2d2d2d0a0000000000000000000000815250610ca7565b6107b63385611476565b6107c08482611494565b6107ca6007611508565b6107ed6040518060600160405280602581526020016134ad60259139853361151e565b7febb98688741ffa4c7589bf325de30cf7becb63de567842e1ccdb6cb949fdc82c338560405161081e929190612780565b60405180910390a15050505050565b61084883838360405180602001604052806000815250610a5f565b505050565b6000806002600084815260200190815260200160002060009054906101000a900473ffffffffffffffffffffffffffffffffffffffff169050600073ffffffffffffffffffffffffffffffffffffffff168173ffffffffffffffffffffffffffffffffffffffff1614156108f6576040517f08c379a00000000000000000000000000000000000000000000000000000000081526004016108ed90612904565b60405180910390fd5b80915050919050565b60008073ffffffffffffffffffffffffffffffffffffffff168273ffffffffffffffffffffffffffffffffffffffff161415610970576040517f08c379a0000000000000000000000000000000000000000000000000000000008152600401610967906128e4565b60405180910390fd5b600360008373ffffffffffffffffffffffffffffffffffffffff1673ffffffffffffffffffffffffffffffffffffffff168152602001908152602001600020549050919050565b6060600180546109c690612ce9565b80601f01602080910402602001604051908101604052809291908181526020018280546109f290612ce9565b8015610a3f5780601f10610a1457610100808354040283529160200191610a3f565b820191906000526020600020905b815481529060010190602001808311610a2257829003601f168201915b5050505050905090565b610a5b610a54610e16565b83836115bd565b5050565b610a70610a6a610e16565b83610ed7565b610aaf576040517f08c379a0000000000000000000000000000000000000000000000000000000008152600401610aa690612a04565b60405180910390fd5b610abb8484848461172a565b50505050565b6060610acc82610daa565b610b0b576040517f08c379a0000000000000000000000000000000000000000000000000000000008152600401610b0290612964565b60405180910390fd5b6000600660008481526020019081526020016000208054610b2b90612ce9565b80601f0160208091040260200160405190810160405280929190818152602001828054610b5790612ce9565b8015610ba45780601f10610b7957610100808354040283529160200191610ba4565b820191906000526020600020905b815481529060010190602001808311610b8757829003601f168201915b505050505090506000610bb5611786565b9050600081511415610bcb578192505050610c0e565b600082511115610c00578082604051602001610be892919061265f565b60405160208183030381529060405292505050610c0e565b610c098461179d565b925050505b919050565b6000600560008473ffffffffffffffffffffffffffffffffffffffff1673ffffffffffffffffffffffffffffffffffffffff16815260200190815260200160002060008373ffffffffffffffffffffffffffffffffffffffff1673ffffffffffffffffffffffffffffffffffffffff16815260200190815260200160002060009054906101000a900460ff16905092915050565b610d3d81604051602401610cbb91906127c4565b6040516020818303038152906040527f41304fac000000000000000000000000000000000000000000000000000000007bffffffffffffffffffffffffffffffffffffffffffffffffffffffff19166020820180517bffffffffffffffffffffffffffffffffffffffffffffffffffffffff8381831617835250505050611844565b50565b60007f01ffc9a7000000000000000000000000000000000000000000000000000000007bffffffffffffffffffffffffffffffffffffffffffffffffffffffff1916827bffffffffffffffffffffffffffffffffffffffffffffffffffffffff1916149050919050565b60008073ffffffffffffffffffffffffffffffffffffffff166002600084815260200190815260200160002060009054906101000a900473ffffffffffffffffffffffffffffffffffffffff1673ffffffffffffffffffffffffffffffffffffffff1614159050919050565b600033905090565b816004600083815260200190815260200160002060006101000a81548173ffffffffffffffffffffffffffffffffffffffff021916908373ffffffffffffffffffffffffffffffffffffffff160217905550808273ffffffffffffffffffffffffffffffffffffffff16610e918361084d565b73ffffffffffffffffffffffffffffffffffffffff167f8c5be1e5ebec7d5bd14f71427d1e84f3dd0314c0f7b2291e5b200ac8c7c3b92560405160405180910390a45050565b6000610ee282610daa565b610f21576040517f08c379a0000000000000000000000000000000000000000000000000000000008152600401610f18906128a4565b60405180910390fd5b6000610f2c8361084d565b90508073ffffffffffffffffffffffffffffffffffffffff168473ffffffffffffffffffffffffffffffffffffffff161480610f9b57508373ffffffffffffffffffffffffffffffffffffffff16610f8384610467565b73ffffffffffffffffffffffffffffffffffffffff16145b80610fac5750610fab8185610c13565b5b91505092915050565b8273ffffffffffffffffffffffffffffffffffffffff16610fd58261084d565b73ffffffffffffffffffffffffffffffffffffffff161461102b576040517f08c379a0000000000000000000000000000000000000000000000000000000008152600401611022906129a4565b60405180910390fd5b600073ffffffffffffffffffffffffffffffffffffffff168273ffffffffffffffffffffffffffffffffffffffff16141561109b576040517f08c379a000000000000000000000000000000000000000000000000000000000815260040161109290612864565b60405180910390fd5b6110a683838361186d565b6110b1600082610e1e565b6001600360008573ffffffffffffffffffffffffffffffffffffffff1673ffffffffffffffffffffffffffffffffffffffff16815260200190815260200160002060008282546111019190612bff565b925050819055506001600360008473ffffffffffffffffffffffffffffffffffffffff1673ffffffffffffffffffffffffffffffffffffffff16815260200190815260200160002060008282546111589190612b1e565b92505081905550816002600083815260200190815260200160002060006101000a81548173ffffffffffffffffffffffffffffffffffffffff021916908373ffffffffffffffffffffffffffffffffffffffff160217905550808273ffffffffffffffffffffffffffffffffffffffff168473ffffffffffffffffffffffffffffffffffffffff167fddf252ad1be2c89b69c2b068fc378daa952ba7f163c4a11628f55a4df523b3ef60405160405180910390a4505050565b6112a7816040516024016112259190612a24565b6040516020818303038152906040527ff5b1bba9000000000000000000000000000000000000000000000000000000007bffffffffffffffffffffffffffffffffffffffffffffffffffffffff19166020820180517bffffffffffffffffffffffffffffffffffffffffffffffffffffffff8381831617835250505050611844565b50565b600081600001549050919050565b606060008251905060008114156112e15760405180602001604052806000815250915050611471565b600060036002836112f29190612b1e565b6112fc9190612b74565b60046113089190612ba5565b905060006020826113199190612b1e565b67ffffffffffffffff811115611358577f4e487b7100000000000000000000000000000000000000000000000000000000600052604160045260246000fd5b6040519080825280601f01601f19166020018201604052801561138a5781602001600182028036833780820191505090505b50905060006040518060600160405280604081526020016134d2604091399050600181016020830160005b8681101561142e5760038101905062ffffff818a015116603f8160121c168401518060081b905060ff603f83600c1c1686015116810190508060081b905060ff603f8360061c1686015116810190508060081b905060ff603f831686015116810190508060e01b905080845260048401935050506113b5565b506003860660018114611448576002811461145857611463565b613d3d60f01b6002830352611463565b603d60f81b60018303525b508484525050819450505050505b919050565b611490828260405180602001604052806000815250611872565b5050565b61149d82610daa565b6114dc576040517f08c379a00000000000000000000000000000000000000000000000000000000081526004016114d390612924565b60405180910390fd5b80600660008481526020019081526020016000209080519060200190611503929190611df2565b505050565b6001816000016000828254019250508190555050565b6115b8838383604051602401611536939291906127e6565b6040516020818303038152906040527fe3849f79000000000000000000000000000000000000000000000000000000007bffffffffffffffffffffffffffffffffffffffffffffffffffffffff19166020820180517bffffffffffffffffffffffffffffffffffffffffffffffffffffffff8381831617835250505050611844565b505050565b8173ffffffffffffffffffffffffffffffffffffffff168373ffffffffffffffffffffffffffffffffffffffff16141561162c576040517f08c379a000000000000000000000000000000000000000000000000000000000815260040161162390612884565b60405180910390fd5b80600560008573ffffffffffffffffffffffffffffffffffffffff1673ffffffffffffffffffffffffffffffffffffffff16815260200190815260200160002060008473ffffffffffffffffffffffffffffffffffffffff1673ffffffffffffffffffffffffffffffffffffffff16815260200190815260200160002060006101000a81548160ff0219169083151502179055508173ffffffffffffffffffffffffffffffffffffffff168373ffffffffffffffffffffffffffffffffffffffff167f17307eab39ab6107e8899845ad3d59bd9653f200f220920489ca2b5937696c318360405161171d91906127a9565b60405180910390a3505050565b611735848484610fb5565b611741848484846118cd565b611780576040517f08c379a000000000000000000000000000000000000000000000000000000000815260040161177790612824565b60405180910390fd5b50505050565b606060405180602001604052806000815250905090565b60606117a882610daa565b6117e7576040517f08c379a00000000000000000000000000000000000000000000000000000000081526004016117de906129c4565b60405180910390fd5b60006117f1611786565b90506000815111611811576040518060200160405280600081525061183c565b8061181b84611a64565b60405160200161182c92919061265f565b6040516020818303038152906040525b915050919050565b60008151905060006a636f6e736f6c652e6c6f679050602083016000808483855afa5050505050565b505050565b61187c8383611c11565b61188960008484846118cd565b6118c8576040517f08c379a00000000000000000000000000000000000000000000000000000000081526004016118bf90612824565b60405180910390fd5b505050565b60006118ee8473ffffffffffffffffffffffffffffffffffffffff16611ddf565b15611a57578373ffffffffffffffffffffffffffffffffffffffff1663150b7a02611917610e16565b8786866040518563ffffffff1660e01b81526004016119399493929190612734565b602060405180830381600087803b15801561195357600080fd5b505af192505050801561198457506040513d601f19601f82011682018060405250810190611981919061219e565b60015b611a07573d80600081146119b4576040519150601f19603f3d011682016040523d82523d6000602084013e6119b9565b606091505b506000815114156119ff576040517f08c379a00000000000000000000000000000000000000000000000000000000081526004016119f690612824565b60405180910390fd5b805181602001fd5b63150b7a0260e01b7bffffffffffffffffffffffffffffffffffffffffffffffffffffffff1916817bffffffffffffffffffffffffffffffffffffffffffffffffffffffff191614915050611a5c565b600190505b949350505050565b60606000821415611aac576040518060400160405280600181526020017f30000000000000000000000000000000000000000000000000000000000000008152509050611c0c565b600082905060005b60008214611ade578080611ac790612d4c565b915050600a82611ad79190612b74565b9150611ab4565b60008167ffffffffffffffff811115611b20577f4e487b7100000000000000000000000000000000000000000000000000000000600052604160045260246000fd5b6040519080825280601f01601f191660200182016040528015611b525781602001600182028036833780820191505090505b5090505b60008514611c0557600182611b6b9190612bff565b9150600a85611b7a9190612d95565b6030611b869190612b1e565b60f81b818381518110611bc2577f4e487b7100000000000000000000000000000000000000000000000000000000600052603260045260246000fd5b60200101907effffffffffffffffffffffffffffffffffffffffffffffffffffffffffffff1916908160001a905350600a85611bfe9190612b74565b9450611b56565b8093505050505b919050565b600073ffffffffffffffffffffffffffffffffffffffff168273ffffffffffffffffffffffffffffffffffffffff161415611c81576040517f08c379a0000000000000000000000000000000000000000000000000000000008152600401611c7890612944565b60405180910390fd5b611c8a81610daa565b15611cca576040517f08c379a0000000000000000000000000000000000000000000000000000000008152600401611cc190612844565b60405180910390fd5b611cd66000838361186d565b6001600360008473ffffffffffffffffffffffffffffffffffffffff1673ffffffffffffffffffffffffffffffffffffffff1681526020019081526020016000206000828254611d269190612b1e565b92505081905550816002600083815260200190815260200160002060006101000a81548173ffffffffffffffffffffffffffffffffffffffff021916908373ffffffffffffffffffffffffffffffffffffffff160217905550808273ffffffffffffffffffffffffffffffffffffffff16600073ffffffffffffffffffffffffffffffffffffffff167fddf252ad1be2c89b69c2b068fc378daa952ba7f163c4a11628f55a4df523b3ef60405160405180910390a45050565b600080823b905060008111915050919050565b828054611dfe90612ce9565b90600052602060002090601f016020900481019282611e205760008555611e67565b82601f10611e3957805160ff1916838001178555611e67565b82800160010185558215611e67579182015b82811115611e66578251825591602001919060010190611e4b565b5b509050611e749190611e78565b5090565b5b80821115611e91576000816000905550600101611e79565b5090565b6000611ea8611ea384612a64565b612a3f565b905082815260208101848484011115611ec057600080fd5b611ecb848285612ca7565b509392505050565b6000611ee6611ee184612a95565b612a3f565b905082815260208101848484011115611efe57600080fd5b611f09848285612ca7565b509392505050565b600081359050611f2081613450565b92915050565b600081359050611f3581613467565b92915050565b600081359050611f4a8161347e565b92915050565b600081519050611f5f8161347e565b92915050565b600082601f830112611f7657600080fd5b8135611f86848260208601611e95565b91505092915050565b600082601f830112611fa057600080fd5b8135611fb0848260208601611ed3565b91505092915050565b600081359050611fc881613495565b92915050565b600060208284031215611fe057600080fd5b6000611fee84828501611f11565b91505092915050565b6000806040838503121561200a57600080fd5b600061201885828601611f11565b925050602061202985828601611f11565b9150509250929050565b60008060006060848603121561204857600080fd5b600061205686828701611f11565b935050602061206786828701611f11565b925050604061207886828701611fb9565b9150509250925092565b6000806000806080858703121561209857600080fd5b60006120a687828801611f11565b94505060206120b787828801611f11565b93505060406120c887828801611fb9565b925050606085013567ffffffffffffffff8111156120e557600080fd5b6120f187828801611f65565b91505092959194509250565b6000806040838503121561211057600080fd5b600061211e85828601611f11565b925050602061212f85828601611f26565b9150509250929050565b6000806040838503121561214c57600080fd5b600061215a85828601611f11565b925050602061216b85828601611fb9565b9150509250929050565b60006020828403121561218757600080fd5b600061219584828501611f3b565b91505092915050565b6000602082840312156121b057600080fd5b60006121be84828501611f50565b91505092915050565b6000602082840312156121d957600080fd5b600082013567ffffffffffffffff8111156121f357600080fd5b6121ff84828501611f8f565b91505092915050565b60006020828403121561221a57600080fd5b600061222884828501611fb9565b91505092915050565b61223a81612c33565b82525050565b61224981612c45565b82525050565b600061225a82612adb565b6122648185612af1565b9350612274818560208601612cb6565b61227d81612e82565b840191505092915050565b600061229382612ae6565b61229d8185612b02565b93506122ad818560208601612cb6565b6122b681612e82565b840191505092915050565b60006122cc82612ae6565b6122d68185612b13565b93506122e6818560208601612cb6565b80840191505092915050565b600081546122ff81612ce9565b6123098186612b13565b94506001821660008114612324576001811461233557612368565b60ff19831686528186019350612368565b61233e85612ac6565b60005b8381101561236057815481890152600182019150602081019050612341565b838801955050505b50505092915050565b600061237e603283612b02565b915061238982612e93565b604082019050919050565b60006123a1601c83612b02565b91506123ac82612ee2565b602082019050919050565b60006123c4602483612b02565b91506123cf82612f0b565b604082019050919050565b60006123e7601983612b02565b91506123f282612f5a565b602082019050919050565b600061240a602c83612b02565b915061241582612f83565b604082019050919050565b600061242d600d83612b13565b915061243882612fd2565b600d82019050919050565b6000612450603883612b02565b915061245b82612ffb565b604082019050919050565b6000612473602a83612b02565b915061247e8261304a565b604082019050919050565b6000612496602983612b02565b91506124a182613099565b604082019050919050565b60006124b9602e83612b02565b91506124c4826130e8565b604082019050919050565b60006124dc600283612b13565b91506124e782613137565b600282019050919050565b60006124ff602083612b02565b915061250a82613160565b602082019050919050565b6000612522603183612b02565b915061252d82613189565b604082019050919050565b6000612545602c83612b02565b9150612550826131d8565b604082019050919050565b6000612568602983612b02565b915061257382613227565b604082019050919050565b600061258b602f83612b02565b915061259682613276565b604082019050919050565b60006125ae600a83612b13565b91506125b9826132c5565b600a82019050919050565b60006125d1602183612b02565b91506125dc826132ee565b604082019050919050565b60006125f4601d83612b13565b91506125ff8261333d565b601d82019050919050565b6000612617606583612b13565b915061262282613366565b606582019050919050565b600061263a603183612b02565b915061264582613401565b604082019050919050565b61265981612c9d565b82525050565b600061266b82856122c1565b915061267782846122c1565b91508190509392505050565b600061268f82856122f2565b915061269b82846122c1565b91506126a682612420565b91508190509392505050565b60006126bd826125a1565b91506126c982856122c1565b91506126d48261260a565b91506126e082846122c1565b91506126eb826124cf565b91508190509392505050565b6000612702826125e7565b915061270e82846122c1565b915081905092915050565b600060208201905061272e6000830184612231565b92915050565b60006080820190506127496000830187612231565b6127566020830186612231565b6127636040830185612650565b8181036060830152612775818461224f565b905095945050505050565b60006040820190506127956000830185612231565b6127a26020830184612650565b9392505050565b60006020820190506127be6000830184612240565b92915050565b600060208201905081810360008301526127de8184612288565b905092915050565b600060608201905081810360008301526128008186612288565b905061280f6020830185612650565b61281c6040830184612231565b949350505050565b6000602082019050818103600083015261283d81612371565b9050919050565b6000602082019050818103600083015261285d81612394565b9050919050565b6000602082019050818103600083015261287d816123b7565b9050919050565b6000602082019050818103600083015261289d816123da565b9050919050565b600060208201905081810360008301526128bd816123fd565b9050919050565b600060208201905081810360008301526128dd81612443565b9050919050565b600060208201905081810360008301526128fd81612466565b9050919050565b6000602082019050818103600083015261291d81612489565b9050919050565b6000602082019050818103600083015261293d816124ac565b9050919050565b6000602082019050818103600083015261295d816124f2565b9050919050565b6000602082019050818103600083015261297d81612515565b9050919050565b6000602082019050818103600083015261299d81612538565b9050919050565b600060208201905081810360008301526129bd8161255b565b9050919050565b600060208201905081810360008301526129dd8161257e565b9050919050565b600060208201905081810360008301526129fd816125c4565b9050919050565b60006020820190508181036000830152612a1d8161262d565b9050919050565b6000602082019050612a396000830184612650565b92915050565b6000612a49612a5a565b9050612a558282612d1b565b919050565b6000604051905090565b600067ffffffffffffffff821115612a7f57612a7e612e53565b5b612a8882612e82565b9050602081019050919050565b600067ffffffffffffffff821115612ab057612aaf612e53565b5b612ab982612e82565b9050602081019050919050565b60008190508160005260206000209050919050565b600081519050919050565b600081519050919050565b600082825260208201905092915050565b600082825260208201905092915050565b600081905092915050565b6000612b2982612c9d565b9150612b3483612c9d565b9250827fffffffffffffffffffffffffffffffffffffffffffffffffffffffffffffffff03821115612b6957612b68612dc6565b5b828201905092915050565b6000612b7f82612c9d565b9150612b8a83612c9d565b925082612b9a57612b99612df5565b5b828204905092915050565b6000612bb082612c9d565b9150612bbb83612c9d565b9250817fffffffffffffffffffffffffffffffffffffffffffffffffffffffffffffffff0483118215151615612bf457612bf3612dc6565b5b828202905092915050565b6000612c0a82612c9d565b9150612c1583612c9d565b925082821015612c2857612c27612dc6565b5b828203905092915050565b6000612c3e82612c7d565b9050919050565b60008115159050919050565b60007fffffffff0000000000000000000000000000000000000000000000000000000082169050919050565b600073ffffffffffffffffffffffffffffffffffffffff82169050919050565b6000819050919050565b82818337600083830152505050565b60005b83811015612cd4578082015181840152602081019050612cb9565b83811115612ce3576000848401525b50505050565b60006002820490506001821680612d0157607f821691505b60208210811415612d1557612d14612e24565b5b50919050565b612d2482612e82565b810181811067ffffffffffffffff82111715612d4357612d42612e53565b5b80604052505050565b6000612d5782612c9d565b91507fffffffffffffffffffffffffffffffffffffffffffffffffffffffffffffffff821415612d8a57612d89612dc6565b5b600182019050919050565b6000612da082612c9d565b9150612dab83612c9d565b925082612dbb57612dba612df5565b5b828206905092915050565b7f4e487b7100000000000000000000000000000000000000000000000000000000600052601160045260246000fd5b7f4e487b7100000000000000000000000000000000000000000000000000000000600052601260045260246000fd5b7f4e487b7100000000000000000000000000000000000000000000000000000000600052602260045260246000fd5b7f4e487b7100000000000000000000000000000000000000000000000000000000600052604160045260246000fd5b6000601f19601f8301169050919050565b7f4552433732313a207472616e7366657220746f206e6f6e20455243373231526560008201527f63656976657220696d706c656d656e7465720000000000000000000000000000602082015250565b7f4552433732313a20746f6b656e20616c7265616479206d696e74656400000000600082015250565b7f4552433732313a207472616e7366657220746f20746865207a65726f2061646460008201527f7265737300000000000000000000000000000000000000000000000000000000602082015250565b7f4552433732313a20617070726f766520746f2063616c6c657200000000000000600082015250565b7f4552433732313a206f70657261746f7220717565727920666f72206e6f6e657860008201527f697374656e7420746f6b656e0000000000000000000000000000000000000000602082015250565b7f3c2f746578743e3c2f7376673e00000000000000000000000000000000000000600082015250565b7f4552433732313a20617070726f76652063616c6c6572206973206e6f74206f7760008201527f6e6572206e6f7220617070726f76656420666f7220616c6c0000000000000000602082015250565b7f4552433732313a2062616c616e636520717565727920666f7220746865207a6560008201527f726f206164647265737300000000000000000000000000000000000000000000602082015250565b7f4552433732313a206f776e657220717565727920666f72206e6f6e657869737460008201527f656e7420746f6b656e0000000000000000000000000000000000000000000000602082015250565b7f45524337323155524953746f726167653a2055524920736574206f66206e6f6e60008201527f6578697374656e7420746f6b656e000000000000000000000000000000000000602082015250565b7f227d000000000000000000000000000000000000000000000000000000000000600082015250565b7f4552433732313a206d696e7420746f20746865207a65726f2061646472657373600082015250565b7f45524337323155524953746f726167653a2055524920717565727920666f722060008201527f6e6f6e6578697374656e7420746f6b656e000000000000000000000000000000602082015250565b7f4552433732313a20617070726f76656420717565727920666f72206e6f6e657860008201527f697374656e7420746f6b656e0000000000000000000000000000000000000000602082015250565b7f4552433732313a207472616e73666572206f6620746f6b656e2074686174206960008201527f73206e6f74206f776e0000000000000000000000000000000000000000000000602082015250565b7f4552433732314d657461646174613a2055524920717565727920666f72206e6f60008201527f6e6578697374656e7420746f6b656e0000000000000000000000000000000000602082015250565b7f7b226e616d65223a202200000000000000000000000000000000000000000000600082015250565b7f4552433732313a20617070726f76616c20746f2063757272656e74206f776e6560008201527f7200000000000000000000000000000000000000000000000000000000000000602082015250565b7f646174613a6170706c69636174696f6e2f6a736f6e3b6261736536342c000000600082015250565b7f222c20226465736372697074696f6e223a20225468652062657374204e46542060008201527f4861636b206f66203230323020736f2066617220666f722073757265212e222c60208201527f2022696d616765223a2022646174613a696d6167652f7376672b786d6c3b626160408201527f736536342c000000000000000000000000000000000000000000000000000000606082015250565b7f4552433732313a207472616e736665722063616c6c6572206973206e6f74206f60008201527f776e6572206e6f7220617070726f766564000000000000000000000000000000602082015250565b61345981612c33565b811461346457600080fd5b50565b61347081612c45565b811461347b57600080fd5b50565b61348781612c51565b811461349257600080fd5b50565b61349e81612c9d565b81146134a957600080fd5b5056fe416e204e465420772f20494420257320686173206265656e206d696e74656420746f2025734142434445464748494a4b4c4d4e4f505152535455565758595a6162636465666768696a6b6c6d6e6f707172737475767778797a303132333435363738392b2fa2646970667358221220148a2e04336f47ce593fad4e50968d6f4fc064462085873e1eab7077cf829f2b64736f6c634300080400333c73766720786d6c6e733d27687474703a2f2f7777772e77332e6f72672f323030302f73766727207072657365727665417370656374526174696f3d27784d696e594d696e206d656574272076696577426f783d273020302033353020333530273e3c7374796c653e2e62617365207b2066696c6c3a2077686974653b20666f6e742d66616d696c793a2073657269663b20666f6e742d73697a653a20323470783b207d3c2f7374796c653e3c726563742077696474683d273130302527206865696768743d2731303025272066696c6c3d27626c61636b27202f3e3c7465787420783d273530252720793d273530252720636c6173733d27626173652720646f6d696e616e742d626173656c696e653d276d6964646c652720746578742d616e63686f723d276d6964646c65273e",
  "linkReferences": {},
  "deployedLinkReferences": {}
}