{
  "_format": "hh-sol-artifact-1",
  "contractName": "FilecoinNFTHackOLD",
  "sourceName": "contracts/Test.sol",
  "abi": [
    {
      "inputs": [],
      "stateMutability": "nonpayable",
      "type": "constructor"
    },
    {
      "anonymous": false,
      "inputs": [
        {
          "indexed": true,
          "internalType": "address",
          "name": "owner",
          "type": "address"
        },
        {
          "indexed": true,
          "internalType": "address",
          "name": "approved",
          "type": "address"
        },
        {
          "indexed": true,
          "internalType": "uint256",
          "name": "tokenId",
          "type": "uint256"
        }
      ],
      "name": "Approval",
      "type": "event"
    },
    {
      "anonymous": false,
      "inputs": [
        {
          "indexed": true,
          "internalType": "address",
          "name": "owner",
          "type": "address"
        },
        {
          "indexed": true,
          "internalType": "address",
          "name": "operator",
          "type": "address"
        },
        {
          "indexed": false,
          "internalType": "bool",
          "name": "approved",
          "type": "bool"
        }
      ],
      "name": "ApprovalForAll",
      "type": "event"
    },
    {
      "anonymous": false,
      "inputs": [
        {
          "indexed": false,
          "internalType": "address",
          "name": "sender",
          "type": "address"
        },
        {
          "indexed": false,
          "internalType": "uint256",
          "name": "tokenId",
          "type": "uint256"
        },
        {
          "indexed": false,
          "internalType": "string",
          "name": "tokenURI",
          "type": "string"
        }
      ],
      "name": "NewFilecoinNFTMinted",
      "type": "event"
    },
    {
      "anonymous": false,
      "inputs": [
        {
          "indexed": true,
          "internalType": "address",
          "name": "from",
          "type": "address"
        },
        {
          "indexed": true,
          "internalType": "address",
          "name": "to",
          "type": "address"
        },
        {
          "indexed": true,
          "internalType": "uint256",
          "name": "tokenId",
          "type": "uint256"
        }
      ],
      "name": "Transfer",
      "type": "event"
    },
    {
      "inputs": [
        {
          "internalType": "address",
          "name": "to",
          "type": "address"
        },
        {
          "internalType": "uint256",
          "name": "tokenId",
          "type": "uint256"
        }
      ],
      "name": "approve",
      "outputs": [],
      "stateMutability": "nonpayable",
      "type": "function"
    },
    {
      "inputs": [
        {
          "internalType": "address",
          "name": "owner",
          "type": "address"
        }
      ],
      "name": "balanceOf",
      "outputs": [
        {
          "internalType": "uint256",
          "name": "",
          "type": "uint256"
        }
      ],
      "stateMutability": "view",
      "type": "function"
    },
    {
      "inputs": [
        {
          "internalType": "uint256",
          "name": "tokenId",
          "type": "uint256"
        }
      ],
      "name": "getApproved",
      "outputs": [
        {
          "internalType": "address",
          "name": "",
          "type": "address"
        }
      ],
      "stateMutability": "view",
      "type": "function"
    },
    {
      "inputs": [],
      "name": "getNFTCollection",
      "outputs": [
        {
          "components": [
            {
              "internalType": "address",
              "name": "owner",
              "type": "address"
            },
            {
              "internalType": "string",
              "name": "tokenURI",
              "type": "string"
            },
            {
              "internalType": "uint256",
              "name": "tokenId",
              "type": "uint256"
            }
          ],
          "internalType": "struct FilecoinNFTHackOLD.myNFT[]",
          "name": "",
          "type": "tuple[]"
        }
      ],
      "stateMutability": "view",
      "type": "function"
    },
    {
      "inputs": [
        {
          "internalType": "address",
          "name": "owner",
          "type": "address"
        },
        {
          "internalType": "address",
          "name": "operator",
          "type": "address"
        }
      ],
      "name": "isApprovedForAll",
      "outputs": [
        {
          "internalType": "bool",
          "name": "",
          "type": "bool"
        }
      ],
      "stateMutability": "view",
      "type": "function"
    },
    {
      "inputs": [],
      "name": "maxNFTs",
      "outputs": [
        {
          "internalType": "uint256",
          "name": "",
          "type": "uint256"
        }
      ],
      "stateMutability": "view",
      "type": "function"
    },
    {
      "inputs": [
        {
          "internalType": "string",
          "name": "ipfsURI",
          "type": "string"
        }
      ],
      "name": "mintMyNFT",
      "outputs": [],
      "stateMutability": "nonpayable",
      "type": "function"
    },
    {
      "inputs": [],
      "name": "name",
      "outputs": [
        {
          "internalType": "string",
          "name": "",
          "type": "string"
        }
      ],
      "stateMutability": "view",
      "type": "function"
    },
    {
      "inputs": [
        {
          "internalType": "uint256",
          "name": "",
          "type": "uint256"
        }
      ],
      "name": "nftCollection",
      "outputs": [
        {
          "internalType": "address",
          "name": "owner",
          "type": "address"
        },
        {
          "internalType": "string",
          "name": "tokenURI",
          "type": "string"
        },
        {
          "internalType": "uint256",
          "name": "tokenId",
          "type": "uint256"
        }
      ],
      "stateMutability": "view",
      "type": "function"
    },
    {
      "inputs": [
        {
          "internalType": "uint256",
          "name": "tokenId",
          "type": "uint256"
        }
      ],
      "name": "ownerOf",
      "outputs": [
        {
          "internalType": "address",
          "name": "",
          "type": "address"
        }
      ],
      "stateMutability": "view",
      "type": "function"
    },
    {
      "inputs": [],
      "name": "remainingMintableNFTs",
      "outputs": [
        {
          "internalType": "uint256",
          "name": "",
          "type": "uint256"
        }
      ],
      "stateMutability": "view",
      "type": "function"
    },
    {
      "inputs": [
        {
          "internalType": "address",
          "name": "from",
          "type": "address"
        },
        {
          "internalType": "address",
          "name": "to",
          "type": "address"
        },
        {
          "internalType": "uint256",
          "name": "tokenId",
          "type": "uint256"
        }
      ],
      "name": "safeTransferFrom",
      "outputs": [],
      "stateMutability": "nonpayable",
      "type": "function"
    },
    {
      "inputs": [
        {
          "internalType": "address",
          "name": "from",
          "type": "address"
        },
        {
          "internalType": "address",
          "name": "to",
          "type": "address"
        },
        {
          "internalType": "uint256",
          "name": "tokenId",
          "type": "uint256"
        },
        {
          "internalType": "bytes",
          "name": "_data",
          "type": "bytes"
        }
      ],
      "name": "safeTransferFrom",
      "outputs": [],
      "stateMutability": "nonpayable",
      "type": "function"
    },
    {
      "inputs": [
        {
          "internalType": "address",
          "name": "operator",
          "type": "address"
        },
        {
          "internalType": "bool",
          "name": "approved",
          "type": "bool"
        }
      ],
      "name": "setApprovalForAll",
      "outputs": [],
      "stateMutability": "nonpayable",
      "type": "function"
    },
    {
      "inputs": [
        {
          "internalType": "bytes4",
          "name": "interfaceId",
          "type": "bytes4"
        }
      ],
      "name": "supportsInterface",
      "outputs": [
        {
          "internalType": "bool",
          "name": "",
          "type": "bool"
        }
      ],
      "stateMutability": "view",
      "type": "function"
    },
    {
      "inputs": [],
      "name": "symbol",
      "outputs": [
        {
          "internalType": "string",
          "name": "",
          "type": "string"
        }
      ],
      "stateMutability": "view",
      "type": "function"
    },
    {
      "inputs": [
        {
          "internalType": "uint256",
          "name": "tokenId",
          "type": "uint256"
        }
      ],
      "name": "tokenURI",
      "outputs": [
        {
          "internalType": "string",
          "name": "",
          "type": "string"
        }
      ],
      "stateMutability": "view",
      "type": "function"
    },
    {
      "inputs": [
        {
          "internalType": "address",
          "name": "from",
          "type": "address"
        },
        {
          "internalType": "address",
          "name": "to",
          "type": "address"
        },
        {
          "internalType": "uint256",
          "name": "tokenId",
          "type": "uint256"
        }
      ],
      "name": "transferFrom",
      "outputs": [],
      "stateMutability": "nonpayable",
      "type": "function"
    }
  ],
  "bytecode": "0x60806040523480156200001157600080fd5b506040518060400160405280601581526020017f457468476c6f62616c204e46544861636b3230323200000000000000000000008152506040518060400160405280601581526020017f46696c65636f696e2053746172746572204e4654730000000000000000000000815250816000908051906020019062000096929190620001d7565b508060019080519060200190620000af929190620001d7565b505050620000fd6040518060400160405280601781526020017f54686973206973206d79204e465420636f6e74726163740000000000000000008152506200010b60201b62000f461760201c565b6064600881905550620003b4565b620001ab81604051602401620001229190620002c8565b6040516020818303038152906040527f41304fac000000000000000000000000000000000000000000000000000000007bffffffffffffffffffffffffffffffffffffffffffffffffffffffff19166020820180517bffffffffffffffffffffffffffffffffffffffffffffffffffffffff8381831617835250505050620001ae60201b60201c565b50565b60008151905060006a636f6e736f6c652e6c6f679050602083016000808483855afa5050505050565b828054620001e5906200033e565b90600052602060002090601f01602090048101928262000209576000855562000255565b82601f106200022457805160ff191683800117855562000255565b8280016001018555821562000255579182015b828111156200025457825182559160200191906001019062000237565b5b50905062000264919062000268565b5090565b5b808211156200028357600081600090555060010162000269565b5090565b60006200029482620002ec565b620002a08185620002f7565b9350620002b281856020860162000308565b620002bd81620003a3565b840191505092915050565b60006020820190508181036000830152620002e4818462000287565b905092915050565b600081519050919050565b600082825260208201905092915050565b60005b83811015620003285780820151818401526020810190506200030b565b8381111562000338576000848401525b50505050565b600060028204905060018216806200035757607f821691505b602082108114156200036e576200036d62000374565b5b50919050565b7f4e487b7100000000000000000000000000000000000000000000000000000000600052602260045260246000fd5b6000601f19601f8301169050919050565b6132ca80620003c46000396000f3fe608060405234801561001057600080fd5b50600436106101165760003560e01c806370a08231116100a2578063a22cb46511610071578063a22cb465146102f5578063b88d4fde14610311578063c87b56dd1461032d578063e985e9c51461035d578063fedea0231461038d57610116565b806370a08231146102575780637c711b2714610287578063911fd8eb146102b957806395d89b41146102d757610116565b806323b872dd116100e957806323b872dd146101b557806338d64576146101d157806342842e0e146101ed5780634e9e1ec6146102095780636352211e1461022757610116565b806301ffc9a71461011b57806306fdde031461014b578063081812fc14610169578063095ea7b314610199575b600080fd5b6101356004803603810190610130919061211e565b6103ab565b6040516101429190612733565b60405180910390f35b61015361048d565b604051610160919061274e565b60405180910390f35b610183600480360381019061017e91906121b1565b61051f565b604051610190919061262e565b60405180910390f35b6101b360048036038101906101ae91906120e2565b6105a4565b005b6101cf60048036038101906101ca9190611fdc565b6106bc565b005b6101eb60048036038101906101e69190612170565b61071c565b005b61020760048036038101906102029190611fdc565b61088d565b005b6102116108ad565b60405161021e9190612970565b60405180910390f35b610241600480360381019061023c91906121b1565b6108b3565b60405161024e919061262e565b60405180910390f35b610271600480360381019061026c9190611f77565b610965565b60405161027e9190612970565b60405180910390f35b6102a1600480360381019061029c91906121b1565b610a1d565b6040516102b093929190612695565b60405180910390f35b6102c1610aff565b6040516102ce9190612970565b60405180910390f35b6102df610b05565b6040516102ec919061274e565b60405180910390f35b61030f600480360381019061030a91906120a6565b610b97565b005b61032b6004803603810190610326919061202b565b610bad565b005b610347600480360381019061034291906121b1565b610c0f565b604051610354919061274e565b60405180910390f35b61037760048036038101906103729190611fa0565b610d61565b6040516103849190612733565b60405180910390f35b610395610df5565b6040516103a29190612711565b60405180910390f35b60007f80ac58cd000000000000000000000000000000000000000000000000000000007bffffffffffffffffffffffffffffffffffffffffffffffffffffffff1916827bffffffffffffffffffffffffffffffffffffffffffffffffffffffff1916148061047657507f5b5e139f000000000000000000000000000000000000000000000000000000007bffffffffffffffffffffffffffffffffffffffffffffffffffffffff1916827bffffffffffffffffffffffffffffffffffffffffffffffffffffffff1916145b80610486575061048582610fdf565b5b9050919050565b60606000805461049c90612c10565b80601f01602080910402602001604051908101604052809291908181526020018280546104c890612c10565b80156105155780601f106104ea57610100808354040283529160200191610515565b820191906000526020600020905b8154815290600101906020018083116104f857829003601f168201915b5050505050905090565b600061052a82611049565b610569576040517f08c379a0000000000000000000000000000000000000000000000000000000008152600401610560906128d0565b60405180910390fd5b6004600083815260200190815260200160002060009054906101000a900473ffffffffffffffffffffffffffffffffffffffff169050919050565b60006105af826108b3565b90508073ffffffffffffffffffffffffffffffffffffffff168373ffffffffffffffffffffffffffffffffffffffff161415610620576040517f08c379a000000000000000000000000000000000000000000000000000000000815260040161061790612930565b60405180910390fd5b8073ffffffffffffffffffffffffffffffffffffffff1661063f6110b5565b73ffffffffffffffffffffffffffffffffffffffff16148061066e575061066d816106686110b5565b610d61565b5b6106ad576040517f08c379a00000000000000000000000000000000000000000000000000000000081526004016106a490612810565b60405180910390fd5b6106b783836110bd565b505050565b6106cd6106c76110b5565b82611176565b61070c576040517f08c379a000000000000000000000000000000000000000000000000000000000815260040161070390612950565b60405180910390fd5b610717838383611254565b505050565b60085461072960076114b0565b1061073357600080fd5b600061073f60076114b0565b9050600060405180606001604052803373ffffffffffffffffffffffffffffffffffffffff16815260200184815260200183815250905061078033836114be565b61078a82846114dc565b6107946007611550565b61079e60076114b0565b6008546107ab9190612b26565b600981905550600a81908060018154018082558091505060019003906000526020600020906003020160009091909190915060008201518160000160006101000a81548173ffffffffffffffffffffffffffffffffffffffff021916908373ffffffffffffffffffffffffffffffffffffffff1602179055506020820151816001019080519060200190610840929190611d9b565b506040820151816002015550507f89f273f7546784d1e53e910bceea74983bf6444b826671e5ecebf276132d2b39338385604051610880939291906126d3565b60405180910390a1505050565b6108a883838360405180602001604052806000815250610bad565b505050565b60085481565b6000806002600084815260200190815260200160002060009054906101000a900473ffffffffffffffffffffffffffffffffffffffff169050600073ffffffffffffffffffffffffffffffffffffffff168173ffffffffffffffffffffffffffffffffffffffff16141561095c576040517f08c379a000000000000000000000000000000000000000000000000000000000815260040161095390612850565b60405180910390fd5b80915050919050565b60008073ffffffffffffffffffffffffffffffffffffffff168273ffffffffffffffffffffffffffffffffffffffff1614156109d6576040517f08c379a00000000000000000000000000000000000000000000000000000000081526004016109cd90612830565b60405180910390fd5b600360008373ffffffffffffffffffffffffffffffffffffffff1673ffffffffffffffffffffffffffffffffffffffff168152602001908152602001600020549050919050565b600a8181548110610a2d57600080fd5b90600052602060002090600302016000915090508060000160009054906101000a900473ffffffffffffffffffffffffffffffffffffffff1690806001018054610a7690612c10565b80601f0160208091040260200160405190810160405280929190818152602001828054610aa290612c10565b8015610aef5780601f10610ac457610100808354040283529160200191610aef565b820191906000526020600020905b815481529060010190602001808311610ad257829003601f168201915b5050505050908060020154905083565b60095481565b606060018054610b1490612c10565b80601f0160208091040260200160405190810160405280929190818152602001828054610b4090612c10565b8015610b8d5780601f10610b6257610100808354040283529160200191610b8d565b820191906000526020600020905b815481529060010190602001808311610b7057829003601f168201915b5050505050905090565b610ba9610ba26110b5565b8383611566565b5050565b610bbe610bb86110b5565b83611176565b610bfd576040517f08c379a0000000000000000000000000000000000000000000000000000000008152600401610bf490612950565b60405180910390fd5b610c09848484846116d3565b50505050565b6060610c1a82611049565b610c59576040517f08c379a0000000000000000000000000000000000000000000000000000000008152600401610c50906128b0565b60405180910390fd5b6000600660008481526020019081526020016000208054610c7990612c10565b80601f0160208091040260200160405190810160405280929190818152602001828054610ca590612c10565b8015610cf25780601f10610cc757610100808354040283529160200191610cf2565b820191906000526020600020905b815481529060010190602001808311610cd557829003601f168201915b505050505090506000610d0361172f565b9050600081511415610d19578192505050610d5c565b600082511115610d4e578082604051602001610d3692919061260a565b60405160208183030381529060405292505050610d5c565b610d5784611746565b925050505b919050565b6000600560008473ffffffffffffffffffffffffffffffffffffffff1673ffffffffffffffffffffffffffffffffffffffff16815260200190815260200160002060008373ffffffffffffffffffffffffffffffffffffffff1673ffffffffffffffffffffffffffffffffffffffff16815260200190815260200160002060009054906101000a900460ff16905092915050565b6060600a805480602002602001604051908101604052809291908181526020016000905b82821015610f3d57838290600052602060002090600302016040518060600160405290816000820160009054906101000a900473ffffffffffffffffffffffffffffffffffffffff1673ffffffffffffffffffffffffffffffffffffffff1673ffffffffffffffffffffffffffffffffffffffff168152602001600182018054610ea290612c10565b80601f0160208091040260200160405190810160405280929190818152602001828054610ece90612c10565b8015610f1b5780601f10610ef057610100808354040283529160200191610f1b565b820191906000526020600020905b815481529060010190602001808311610efe57829003601f168201915b5050505050815260200160028201548152505081526020019060010190610e19565b50505050905090565b610fdc81604051602401610f5a919061274e565b6040516020818303038152906040527f41304fac000000000000000000000000000000000000000000000000000000007bffffffffffffffffffffffffffffffffffffffffffffffffffffffff19166020820180517bffffffffffffffffffffffffffffffffffffffffffffffffffffffff83818316178352505050506117ed565b50565b60007f01ffc9a7000000000000000000000000000000000000000000000000000000007bffffffffffffffffffffffffffffffffffffffffffffffffffffffff1916827bffffffffffffffffffffffffffffffffffffffffffffffffffffffff1916149050919050565b60008073ffffffffffffffffffffffffffffffffffffffff166002600084815260200190815260200160002060009054906101000a900473ffffffffffffffffffffffffffffffffffffffff1673ffffffffffffffffffffffffffffffffffffffff1614159050919050565b600033905090565b816004600083815260200190815260200160002060006101000a81548173ffffffffffffffffffffffffffffffffffffffff021916908373ffffffffffffffffffffffffffffffffffffffff160217905550808273ffffffffffffffffffffffffffffffffffffffff16611130836108b3565b73ffffffffffffffffffffffffffffffffffffffff167f8c5be1e5ebec7d5bd14f71427d1e84f3dd0314c0f7b2291e5b200ac8c7c3b92560405160405180910390a45050565b600061118182611049565b6111c0576040517f08c379a00000000000000000000000000000000000000000000000000000000081526004016111b7906127f0565b60405180910390fd5b60006111cb836108b3565b90508073ffffffffffffffffffffffffffffffffffffffff168473ffffffffffffffffffffffffffffffffffffffff16148061123a57508373ffffffffffffffffffffffffffffffffffffffff166112228461051f565b73ffffffffffffffffffffffffffffffffffffffff16145b8061124b575061124a8185610d61565b5b91505092915050565b8273ffffffffffffffffffffffffffffffffffffffff16611274826108b3565b73ffffffffffffffffffffffffffffffffffffffff16146112ca576040517f08c379a00000000000000000000000000000000000000000000000000000000081526004016112c1906128f0565b60405180910390fd5b600073ffffffffffffffffffffffffffffffffffffffff168273ffffffffffffffffffffffffffffffffffffffff16141561133a576040517f08c379a0000000000000000000000000000000000000000000000000000000008152600401611331906127b0565b60405180910390fd5b611345838383611816565b6113506000826110bd565b6001600360008573ffffffffffffffffffffffffffffffffffffffff1673ffffffffffffffffffffffffffffffffffffffff16815260200190815260200160002060008282546113a09190612b26565b925050819055506001600360008473ffffffffffffffffffffffffffffffffffffffff1673ffffffffffffffffffffffffffffffffffffffff16815260200190815260200160002060008282546113f79190612a9f565b92505081905550816002600083815260200190815260200160002060006101000a81548173ffffffffffffffffffffffffffffffffffffffff021916908373ffffffffffffffffffffffffffffffffffffffff160217905550808273ffffffffffffffffffffffffffffffffffffffff168473ffffffffffffffffffffffffffffffffffffffff167fddf252ad1be2c89b69c2b068fc378daa952ba7f163c4a11628f55a4df523b3ef60405160405180910390a4505050565b600081600001549050919050565b6114d882826040518060200160405280600081525061181b565b5050565b6114e582611049565b611524576040517f08c379a000000000000000000000000000000000000000000000000000000000815260040161151b90612870565b60405180910390fd5b8060066000848152602001908152602001600020908051906020019061154b929190611d9b565b505050565b6001816000016000828254019250508190555050565b8173ffffffffffffffffffffffffffffffffffffffff168373ffffffffffffffffffffffffffffffffffffffff1614156115d5576040517f08c379a00000000000000000000000000000000000000000000000000000000081526004016115cc906127d0565b60405180910390fd5b80600560008573ffffffffffffffffffffffffffffffffffffffff1673ffffffffffffffffffffffffffffffffffffffff16815260200190815260200160002060008473ffffffffffffffffffffffffffffffffffffffff1673ffffffffffffffffffffffffffffffffffffffff16815260200190815260200160002060006101000a81548160ff0219169083151502179055508173ffffffffffffffffffffffffffffffffffffffff168373ffffffffffffffffffffffffffffffffffffffff167f17307eab39ab6107e8899845ad3d59bd9653f200f220920489ca2b5937696c31836040516116c69190612733565b60405180910390a3505050565b6116de848484611254565b6116ea84848484611876565b611729576040517f08c379a000000000000000000000000000000000000000000000000000000000815260040161172090612770565b60405180910390fd5b50505050565b606060405180602001604052806000815250905090565b606061175182611049565b611790576040517f08c379a000000000000000000000000000000000000000000000000000000000815260040161178790612910565b60405180910390fd5b600061179a61172f565b905060008151116117ba57604051806020016040528060008152506117e5565b806117c484611a0d565b6040516020016117d592919061260a565b6040516020818303038152906040525b915050919050565b60008151905060006a636f6e736f6c652e6c6f679050602083016000808483855afa5050505050565b505050565b6118258383611bba565b6118326000848484611876565b611871576040517f08c379a000000000000000000000000000000000000000000000000000000000815260040161186890612770565b60405180910390fd5b505050565b60006118978473ffffffffffffffffffffffffffffffffffffffff16611d88565b15611a00578373ffffffffffffffffffffffffffffffffffffffff1663150b7a026118c06110b5565b8786866040518563ffffffff1660e01b81526004016118e29493929190612649565b602060405180830381600087803b1580156118fc57600080fd5b505af192505050801561192d57506040513d601f19601f8201168201806040525081019061192a9190612147565b60015b6119b0573d806000811461195d576040519150601f19603f3d011682016040523d82523d6000602084013e611962565b606091505b506000815114156119a8576040517f08c379a000000000000000000000000000000000000000000000000000000000815260040161199f90612770565b60405180910390fd5b805181602001fd5b63150b7a0260e01b7bffffffffffffffffffffffffffffffffffffffffffffffffffffffff1916817bffffffffffffffffffffffffffffffffffffffffffffffffffffffff191614915050611a05565b600190505b949350505050565b60606000821415611a55576040518060400160405280600181526020017f30000000000000000000000000000000000000000000000000000000000000008152509050611bb5565b600082905060005b60008214611a87578080611a7090612c73565b915050600a82611a809190612af5565b9150611a5d565b60008167ffffffffffffffff811115611ac9577f4e487b7100000000000000000000000000000000000000000000000000000000600052604160045260246000fd5b6040519080825280601f01601f191660200182016040528015611afb5781602001600182028036833780820191505090505b5090505b60008514611bae57600182611b149190612b26565b9150600a85611b239190612cbc565b6030611b2f9190612a9f565b60f81b818381518110611b6b577f4e487b7100000000000000000000000000000000000000000000000000000000600052603260045260246000fd5b60200101907effffffffffffffffffffffffffffffffffffffffffffffffffffffffffffff1916908160001a905350600a85611ba79190612af5565b9450611aff565b8093505050505b919050565b600073ffffffffffffffffffffffffffffffffffffffff168273ffffffffffffffffffffffffffffffffffffffff161415611c2a576040517f08c379a0000000000000000000000000000000000000000000000000000000008152600401611c2190612890565b60405180910390fd5b611c3381611049565b15611c73576040517f08c379a0000000000000000000000000000000000000000000000000000000008152600401611c6a90612790565b60405180910390fd5b611c7f60008383611816565b6001600360008473ffffffffffffffffffffffffffffffffffffffff1673ffffffffffffffffffffffffffffffffffffffff1681526020019081526020016000206000828254611ccf9190612a9f565b92505081905550816002600083815260200190815260200160002060006101000a81548173ffffffffffffffffffffffffffffffffffffffff021916908373ffffffffffffffffffffffffffffffffffffffff160217905550808273ffffffffffffffffffffffffffffffffffffffff16600073ffffffffffffffffffffffffffffffffffffffff167fddf252ad1be2c89b69c2b068fc378daa952ba7f163c4a11628f55a4df523b3ef60405160405180910390a45050565b600080823b905060008111915050919050565b828054611da790612c10565b90600052602060002090601f016020900481019282611dc95760008555611e10565b82601f10611de257805160ff1916838001178555611e10565b82800160010185558215611e10579182015b82811115611e0f578251825591602001919060010190611df4565b5b509050611e1d9190611e21565b5090565b5b80821115611e3a576000816000905550600101611e22565b5090565b6000611e51611e4c846129b0565b61298b565b905082815260208101848484011115611e6957600080fd5b611e74848285612bce565b509392505050565b6000611e8f611e8a846129e1565b61298b565b905082815260208101848484011115611ea757600080fd5b611eb2848285612bce565b509392505050565b600081359050611ec981613238565b92915050565b600081359050611ede8161324f565b92915050565b600081359050611ef381613266565b92915050565b600081519050611f0881613266565b92915050565b600082601f830112611f1f57600080fd5b8135611f2f848260208601611e3e565b91505092915050565b600082601f830112611f4957600080fd5b8135611f59848260208601611e7c565b91505092915050565b600081359050611f718161327d565b92915050565b600060208284031215611f8957600080fd5b6000611f9784828501611eba565b91505092915050565b60008060408385031215611fb357600080fd5b6000611fc185828601611eba565b9250506020611fd285828601611eba565b9150509250929050565b600080600060608486031215611ff157600080fd5b6000611fff86828701611eba565b935050602061201086828701611eba565b925050604061202186828701611f62565b9150509250925092565b6000806000806080858703121561204157600080fd5b600061204f87828801611eba565b945050602061206087828801611eba565b935050604061207187828801611f62565b925050606085013567ffffffffffffffff81111561208e57600080fd5b61209a87828801611f0e565b91505092959194509250565b600080604083850312156120b957600080fd5b60006120c785828601611eba565b92505060206120d885828601611ecf565b9150509250929050565b600080604083850312156120f557600080fd5b600061210385828601611eba565b925050602061211485828601611f62565b9150509250929050565b60006020828403121561213057600080fd5b600061213e84828501611ee4565b91505092915050565b60006020828403121561215957600080fd5b600061216784828501611ef9565b91505092915050565b60006020828403121561218257600080fd5b600082013567ffffffffffffffff81111561219c57600080fd5b6121a884828501611f38565b91505092915050565b6000602082840312156121c357600080fd5b60006121d184828501611f62565b91505092915050565b60006121e6838361259c565b905092915050565b6121f781612b5a565b82525050565b61220681612b5a565b82525050565b600061221782612a22565b6122218185612a50565b93508360208202850161223385612a12565b8060005b8581101561226f578484038952815161225085826121da565b945061225b83612a43565b925060208a01995050600181019050612237565b50829750879550505050505092915050565b61228a81612b6c565b82525050565b600061229b82612a2d565b6122a58185612a61565b93506122b5818560208601612bdd565b6122be81612da9565b840191505092915050565b60006122d482612a38565b6122de8185612a72565b93506122ee818560208601612bdd565b6122f781612da9565b840191505092915050565b600061230d82612a38565b6123178185612a83565b9350612327818560208601612bdd565b61233081612da9565b840191505092915050565b600061234682612a38565b6123508185612a94565b9350612360818560208601612bdd565b80840191505092915050565b6000612379603283612a83565b915061238482612dba565b604082019050919050565b600061239c601c83612a83565b91506123a782612e09565b602082019050919050565b60006123bf602483612a83565b91506123ca82612e32565b604082019050919050565b60006123e2601983612a83565b91506123ed82612e81565b602082019050919050565b6000612405602c83612a83565b915061241082612eaa565b604082019050919050565b6000612428603883612a83565b915061243382612ef9565b604082019050919050565b600061244b602a83612a83565b915061245682612f48565b604082019050919050565b600061246e602983612a83565b915061247982612f97565b604082019050919050565b6000612491602e83612a83565b915061249c82612fe6565b604082019050919050565b60006124b4602083612a83565b91506124bf82613035565b602082019050919050565b60006124d7603183612a83565b91506124e28261305e565b604082019050919050565b60006124fa602c83612a83565b9150612505826130ad565b604082019050919050565b600061251d602983612a83565b9150612528826130fc565b604082019050919050565b6000612540602f83612a83565b915061254b8261314b565b604082019050919050565b6000612563602183612a83565b915061256e8261319a565b604082019050919050565b6000612586603183612a83565b9150612591826131e9565b604082019050919050565b60006060830160008301516125b460008601826121ee565b50602083015184820360208601526125cc82826122c9565b91505060408301516125e160408601826125ec565b508091505092915050565b6125f581612bc4565b82525050565b61260481612bc4565b82525050565b6000612616828561233b565b9150612622828461233b565b91508190509392505050565b600060208201905061264360008301846121fd565b92915050565b600060808201905061265e60008301876121fd565b61266b60208301866121fd565b61267860408301856125fb565b818103606083015261268a8184612290565b905095945050505050565b60006060820190506126aa60008301866121fd565b81810360208301526126bc8185612302565b90506126cb60408301846125fb565b949350505050565b60006060820190506126e860008301866121fd565b6126f560208301856125fb565b81810360408301526127078184612302565b9050949350505050565b6000602082019050818103600083015261272b818461220c565b905092915050565b60006020820190506127486000830184612281565b92915050565b600060208201905081810360008301526127688184612302565b905092915050565b600060208201905081810360008301526127898161236c565b9050919050565b600060208201905081810360008301526127a98161238f565b9050919050565b600060208201905081810360008301526127c9816123b2565b9050919050565b600060208201905081810360008301526127e9816123d5565b9050919050565b60006020820190508181036000830152612809816123f8565b9050919050565b600060208201905081810360008301526128298161241b565b9050919050565b600060208201905081810360008301526128498161243e565b9050919050565b6000602082019050818103600083015261286981612461565b9050919050565b6000602082019050818103600083015261288981612484565b9050919050565b600060208201905081810360008301526128a9816124a7565b9050919050565b600060208201905081810360008301526128c9816124ca565b9050919050565b600060208201905081810360008301526128e9816124ed565b9050919050565b6000602082019050818103600083015261290981612510565b9050919050565b6000602082019050818103600083015261292981612533565b9050919050565b6000602082019050818103600083015261294981612556565b9050919050565b6000602082019050818103600083015261296981612579565b9050919050565b600060208201905061298560008301846125fb565b92915050565b60006129956129a6565b90506129a18282612c42565b919050565b6000604051905090565b600067ffffffffffffffff8211156129cb576129ca612d7a565b5b6129d482612da9565b9050602081019050919050565b600067ffffffffffffffff8211156129fc576129fb612d7a565b5b612a0582612da9565b9050602081019050919050565b6000819050602082019050919050565b600081519050919050565b600081519050919050565b600081519050919050565b6000602082019050919050565b600082825260208201905092915050565b600082825260208201905092915050565b600082825260208201905092915050565b600082825260208201905092915050565b600081905092915050565b6000612aaa82612bc4565b9150612ab583612bc4565b9250827fffffffffffffffffffffffffffffffffffffffffffffffffffffffffffffffff03821115612aea57612ae9612ced565b5b828201905092915050565b6000612b0082612bc4565b9150612b0b83612bc4565b925082612b1b57612b1a612d1c565b5b828204905092915050565b6000612b3182612bc4565b9150612b3c83612bc4565b925082821015612b4f57612b4e612ced565b5b828203905092915050565b6000612b6582612ba4565b9050919050565b60008115159050919050565b60007fffffffff0000000000000000000000000000000000000000000000000000000082169050919050565b600073ffffffffffffffffffffffffffffffffffffffff82169050919050565b6000819050919050565b82818337600083830152505050565b60005b83811015612bfb578082015181840152602081019050612be0565b83811115612c0a576000848401525b50505050565b60006002820490506001821680612c2857607f821691505b60208210811415612c3c57612c3b612d4b565b5b50919050565b612c4b82612da9565b810181811067ffffffffffffffff82111715612c6a57612c69612d7a565b5b80604052505050565b6000612c7e82612bc4565b91507fffffffffffffffffffffffffffffffffffffffffffffffffffffffffffffffff821415612cb157612cb0612ced565b5b600182019050919050565b6000612cc782612bc4565b9150612cd283612bc4565b925082612ce257612ce1612d1c565b5b828206905092915050565b7f4e487b7100000000000000000000000000000000000000000000000000000000600052601160045260246000fd5b7f4e487b7100000000000000000000000000000000000000000000000000000000600052601260045260246000fd5b7f4e487b7100000000000000000000000000000000000000000000000000000000600052602260045260246000fd5b7f4e487b7100000000000000000000000000000000000000000000000000000000600052604160045260246000fd5b6000601f19601f8301169050919050565b7f4552433732313a207472616e7366657220746f206e6f6e20455243373231526560008201527f63656976657220696d706c656d656e7465720000000000000000000000000000602082015250565b7f4552433732313a20746f6b656e20616c7265616479206d696e74656400000000600082015250565b7f4552433732313a207472616e7366657220746f20746865207a65726f2061646460008201527f7265737300000000000000000000000000000000000000000000000000000000602082015250565b7f4552433732313a20617070726f766520746f2063616c6c657200000000000000600082015250565b7f4552433732313a206f70657261746f7220717565727920666f72206e6f6e657860008201527f697374656e7420746f6b656e0000000000000000000000000000000000000000602082015250565b7f4552433732313a20617070726f76652063616c6c6572206973206e6f74206f7760008201527f6e6572206e6f7220617070726f76656420666f7220616c6c0000000000000000602082015250565b7f4552433732313a2062616c616e636520717565727920666f7220746865207a6560008201527f726f206164647265737300000000000000000000000000000000000000000000602082015250565b7f4552433732313a206f776e657220717565727920666f72206e6f6e657869737460008201527f656e7420746f6b656e0000000000000000000000000000000000000000000000602082015250565b7f45524337323155524953746f726167653a2055524920736574206f66206e6f6e60008201527f6578697374656e7420746f6b656e000000000000000000000000000000000000602082015250565b7f4552433732313a206d696e7420746f20746865207a65726f2061646472657373600082015250565b7f45524337323155524953746f726167653a2055524920717565727920666f722060008201527f6e6f6e6578697374656e7420746f6b656e000000000000000000000000000000602082015250565b7f4552433732313a20617070726f76656420717565727920666f72206e6f6e657860008201527f697374656e7420746f6b656e0000000000000000000000000000000000000000602082015250565b7f4552433732313a207472616e73666572206f6620746f6b656e2074686174206960008201527f73206e6f74206f776e0000000000000000000000000000000000000000000000602082015250565b7f4552433732314d657461646174613a2055524920717565727920666f72206e6f60008201527f6e6578697374656e7420746f6b656e0000000000000000000000000000000000602082015250565b7f4552433732313a20617070726f76616c20746f2063757272656e74206f776e6560008201527f7200000000000000000000000000000000000000000000000000000000000000602082015250565b7f4552433732313a207472616e736665722063616c6c6572206973206e6f74206f60008201527f776e6572206e6f7220617070726f766564000000000000000000000000000000602082015250565b61324181612b5a565b811461324c57600080fd5b50565b61325881612b6c565b811461326357600080fd5b50565b61326f81612b78565b811461327a57600080fd5b50565b61328681612bc4565b811461329157600080fd5b5056fea26469706673582212206a50b3ffc8076c59e660f0f1dfa67b8ef2edfddb14ca166b7d95269bf974509464736f6c63430008040033",
  "linkReferences": {},
  "deployedLinkReferences": {}
}